:020000040000FA
:10000000882A0020F9000000992700000301000061
:1000100005010000070100000901000000000000C8
:100020000000000000000000000000000B010000C4
:100030000D010000000000000F010000FD3900006C
:100040001301000013010000130100001301000060
:10005000130100001301000013010000253B000004
:100060001301000013010000130100001301000040
:100070001301000013010000130100001301000030
:100080001301000013010000130100001301000020
:10009000990C00001301000013010000130100007F
:1000A0001301000013010000130100001301000000
:1000B00013010000130100001301000013010000F0
:1000C00013010000130100001301000013010000E0
:1000D00013010000130100001301000013010000D0
:1000E000DFF810D000F030FB00480047B7470000B1
:1000F000AFF30080882A0020064880470648004762
:10010000FEE7FEE7FEE7FEE7FEE7FEE7FEE7FEE7C7
:10011000FEE7FEE7913A0000E10000002DE9F05F04
:100120000546002092469B46884606468146402466
:100130001BE0284641464746224600F005F9534653
:100140005A46C01A914110D311461846224600F073
:1001500016F82D1A67EB01084F46224601200021B0
:1001600000F00DF817EB00094E41201EA4F1010428
:10017000DFDC484631462A464346BDE8F09F202A48
:1001800004DB203A00FA02F1002070479140C2F1EE
:10019000200320FA03F319439040704740EA01031B
:1001A0009B0703D009E008C9121F08C0042AFAD22D
:1001B00003E011F8013B00F8013B521EF9D27047F1
:1001C000D2B201E000F8012B491EFBD27047002299
:1001D000F6E710B513460A4604461946FFF7F0FF46
:1001E000204610BD30B504460020034600E05B1CED
:1001F000934203D2E05CCD5C401BF8D030BD80EA76
:10020000010210B502F00043400022D04A001FD086
:10021000010E01EB1261C0F35600C2F3560240F426
:10022000000042F40002A0FB022000047F39140405
:1002300000D0401C50EA124001D44000491EC2B216
:100240000C0604EBD010401C4008802A02D003E0CA
:10025000002010BD20F00100002900DA0020184322
:1002600010BD30B480EA010202F0004530F00042D7
:1002700021F0004013D090B1C30DD40DC2F316018C
:10028000C0F31600E41A41F4000140F400027D348A
:10029000914201D3641C00E04900002C02DA30BC1A
:1002A000002070474FF400000023914201D3891AC7
:1002B000034340084FEA4101F7D151B1914202D1C5
:1002C0004FF0004105E002D24FF0010101E06FF074
:1002D000010103EBC450284430BC00F045B8420093
:1002E00005D0C0F3C7525242914201DC0020704752
:1002F00000EBC150704700F0004230F000400AD0DF
:10030000C10D01F56071C0F3160042EA0151C20847
:1003100040071143704700200146704730B50B4637
:10032000014600202022012409E021FA02F59D4225
:1003300005D303FA02F5491B04FA02F52844151EF9
:10034000A2F10102F1DC30BD202A04DB203A21FABF
:1003500002F00021704721FA02F3D040C2F12002DE
:1003600091400843194670470029A8BF7047401CB8
:10037000490008BF20F00100704710B4B0FA80FCBB
:1003800000FA0CF050EA010404BF10BC704749B1F8
:10039000CCF1200421FA04F411FA0CF118BF012168
:1003A00021430843A3EB0C01CB1D4FEA00614FEA48
:1003B000102042BF002010BC704700EBC350104417
:1003C0000029A4BF10BC7047401C490008BF20F0A2
:1003D000010010BC70472DE9FE4F804681EA030002
:1003E000C00F0C46009021F0004123F00045B8EB0F
:1003F0000200A94105D24046214690461C460B46C4
:10040000024623F00040104347D0270DC7F30A00EF
:10041000C3F30A510290401A019040286BDAC3F3EB
:10042000130040F4801B0098924620B10023D2EBC9
:10043000030A63EB0B0B01985946C0F1400250468A
:10044000FFF79DFE06460D4650465946019A00F0BC
:100450008DF910EB08006141002487EA115284EA0B
:10046000E7731A4340D0009A62B3019A012A4FEA17
:10047000075215DC001B61EB02014FF0004202EA5B
:100480000752CDE90042001C41F5801132462B464F
:1004900000F08DF903B0BDE8F08F40462146F9E742
:1004A000001B61EB0201001C41F5801300185B4149
:1004B0002018A2F5001747EB030140EAD570B619E2
:1004C0006D4111E06D084FEA360645EAC0754FEA06
:1004D0000752001B61EB0201001C41F58011490825
:1004E0004FEA30000019514132462B4603B0BDE8B7
:1004F000F04F00F04DB90098012240000023D0EBEE
:10050000020263EBE073009821464FEAE074B8EB17
:10051000000061EB0401E9E783F000435BE781F051
:10052000004158E72DE9FE4F81EA030404F000443E
:1005300021F0004100944FF0000B23F0004350EAFB
:1005400001045ED052EA03045BD0C3F30A54C1F342
:100550000A552C44A4F2F3340194A0FB0254C1F3D5
:10056000130141F48011C3F3130343F4801301FB1F
:10057000024400FB034E840A970A44EA815447EA86
:100580008357A4FB076802958D0A05FB07854FEA90
:10059000932C04FB0C542705029D4FEA065847EAAA
:1005A0001637B5EB08056EEB070C870E920E47EA7F
:1005B000811742EA8312A7FB0201B6EB0B0164EB41
:1005C00000042B0D43EA0C335E1844EB1C50DA4652
:1005D0005146E7FB0201C5F313044FEA0B3343EA2C
:1005E00014534FEA0432019C43EA0603A4F10C04BD
:1005F0000294009CCDE900B400F0D9F803B0BDE846
:10060000F08F00200146F9E72DE9F04D81EA03045F
:1006100004F0004B21F0004514464FF0000A23F08F
:10062000004150EA050220D054EA01021DD0C5F372
:100630000A570246C5F31303C1F31300C1F30A5668
:1006400040F4801543F48013A7EB0608101BD64630
:1006500008F2FD3873EB050002D308F1010801E050
:1006600092185B41B8F1000F03DA00200146BDE8A3
:10067000F08D00204FF48011064684460EE0171BD3
:1006800073EB050705D3121B63EB050306434CEA26
:10069000010C49084FEA300092185B4150EA01070B
:1006A000EDD152EA030012D082EA040083EA050188
:1006B000084305D0101BAB4106D20122002306E0FF
:1006C00000224FF0004302E06FF0010253101AEBDA
:1006D00006004CEB085110EB0A0041EB0B01BDE8A2
:1006E000F04D00F055B8C1F30A52C1F3130140F2C6
:1006F000FF3341F480119A4202DA0020014670472C
:1007000040F233439A42A2F2334202DC5242FFF7F4
:100710001BBEFFF734BD000030B5041E71F10004AC
:1007200004DB4FF00044404264EB0101141E73F1FE
:10073000000405DB1C464FF00043524263EB040308
:10074000994208BF904230BD064C074D06E0E06874
:1007500040F0010394E8070098471034AC42F6D308
:10076000FFF7C2FC6065000080650000202A06DB00
:10077000CB17203A41FA02F043EAE07306E041FA6F
:1007800002F3D040C2F1200291400843194670475D
:1007900010B5141E73F1000408DA401C41F1000189
:1007A00092185B411A4301D120F0010010BD2DE9E0
:1007B000F04D92469B4611B1B1FA81F202E0B0FAD7
:1007C00080F220329046FFF7DAFC04460F4640EAFA
:1007D0000A0041EA0B0153465A46084313D011461A
:1007E00053EA010019D0C8F140025046FFF7ACFDB2
:1007F00005460E46504659464246FFF7C0FC0843A0
:1008000005D0012004E020463946BDE8F08D0020E7
:10081000054346EAE0762C4337430A986305E40A29
:10082000A0EB08000022FD0A44EA47540A3002D532
:1008300000200146E9E7010510196941DDE9084595
:1008400000196941BDE8F04DA2E7000010B5254C44
:10085000E06940F48020E061E06940F40020E0615C
:10086000012000F0A9FB4FF0A040016841F40041D5
:100870000160606A40F002006062E06920F40010EC
:10088000E061E06940F48000E0611748016821F010
:10089000FF01491C01600121416000221621104620
:1008A00000F046FE00221821104600F041FE822290
:1008B0001621002000F03CFE0C480122FF2101F02F
:1008C000ABFC40221821FE2000F032FE402218210D
:1008D000EF2000F02DFEE0221821BDE81040FD20A1
:1008E00000F026BE0000084000C002408000015019
:1008F00010B54FF0A0410748086000200649086184
:1009000003F0A8FA05484FF480610160C0F8801038
:1009100010BD00008181211E000008400000015030
:1009200007480069012805D0022805D0032805D111
:1009300001F056BC00F02ABE00F088BE70470000EF
:100940005822002010B501F07DFFBDE8104001F0F5
:1009500057BC000010B50F490878002804D00128C2
:1009600005D0022811D105E002F0CAFE0DE0FFF724
:10097000D7FF0AE0084A506CB0F5801F05D300206D
:100980005064087005A003F0AFFA064901204860E2
:1009900010BD000058220020B020002041542B4FF1
:1009A0004B0A000000400840F8B500230093D4072C
:1009B0006D462ED010F8014B8DF80040303C092CCC
:1009C00004D80C70521E02EBD2761CE00120F8BD58
:1009D00002788DF800204278801C8DF801200022DA
:1009E000AC5C303C092C12D8AC54521C022AF7DB08
:1009F0009DF8002002EB82025200CC189DF8017095
:100A00003A4462705B1CB3EB660FE1DB21E001202E
:100A1000F8BD02EBD27619E002788DF8002042781A
:100A2000801C8DF801200022AC5C303C092C12D8CF
:100A3000AC54521C022AF7DB9DF8002002EB820224
:100A400052009DF801402244CA545B1CB3EB660F70
:100A5000E2DB0020F8BD0120F8BD000010B50178F0
:100A60004278490741EA0271827841EA026182884C
:100A700041EA0232C1880A43017A0B0642EA112296
:100A8000417A43EA015342EA1132817A43EA01335F
:100A900042EA1152C17A43EA012342EA1162017B20
:100AA00043EA011342EA1172817BC07B43EA81036E
:100AB0000343044842EA91720068C0F80031C0F86C
:100AC000042110BD4400002010B51B4C00202070F4
:100AD0006070A0704FF48071A1804021E1800221FC
:100AE00021726072154A917EA172517EE172127E6E
:100AF000227311446173A0730120E0732046FFF755
:100B0000ADFF0F4804224FF4C871006800F58470EF
:100B1000026041604FF480410A4A8260C160617B9B
:100B2000C1F140020749016101EB82324261064A8C
:100B300000218261C16110BDA8210020582200203F
:100B400044000020001800300040103010B51B4C4D
:100B5000002020706070A0704FF48071A18040214F
:100B6000E180022121726072154A917EA172517E4C
:100B7000E172127E227311446173A0730120E0734D
:100B80002046FFF76BFF0F4804224FF4C87100683E
:100B900000F58470026041604FF480610A4A82600F
:100BA000C160617BC1F140020749016101EB822212
:100BB0004261064A00218261C16110BDA821002066
:100BC0005822002044000020000030300040103047
:100BD0002DE9F05F0026DFF888904FF0010A09EB5D
:100BE000C6040021216061602162616200202064EE
:100BF00060642166616600250AFA06F74FEAE77825
:100C00003846AA004146FFF7BAFAD4E900CB0B46B2
:100C1000024640EA0C0041EA0B01C4E90001D4E9B4
:100C200008CB42EA0C0043EA0B01C4E90801D4E90D
:100C300010CB42EA0C0043EA0B01C4E91001104654
:100C40001946D4E9182310431943C4E918016D1C4F
:100C5000202DD5D3761C042EC1D3BDE8F09F000013
:100C6000B82100200B484FF0FF32006800F50870F3
:100C7000026042608260C260026142618261C26160
:100C80000262426211468162C16201634163826312
:100C9000C26370474400002030B522480068D0F895
:100CA0002013D0F824234FF001021F4B890726D5CB
:100CB0000221C0F820130024C0F824430021596009
:100CC0001A4C616851B9D0F81054D0F8141445F09A
:100CD0000105C0F81054C0F814146260A168491CE2
:100CE000A160C3290BD101684468114D01602C40FB
:100CF000446001684468016044F480144460D0F8A2
:100D00002013D0F82443C9060BD51021C0F82013B6
:100D10000024C0F82443002000BF401C6428FBD3FB
:100D20005A6030BD4400002000C002403400002062
:100D3000FF0F00FF06494FF480100860491705486F
:100D40006FF012020068C0F80023C0F80413704767
:100D500000E100E0440000202DE9F0414FF0A04008
:100D6000016841F400110160816821F40011816083
:100D7000816841F400118160FFF7DCFF344800F026
:100D800085F8344C20683030D0F8D023D0F8D41314
:100D900022F00402C0F8D023C0F8D41300212E4A58
:100DA000026041602D4A8266C1661022C0F850215F
:100DB000C0F85411FFF70CFFFFF786FE20680421EE
:100DC000274A00F5A47002604160264A8260C16033
:100DD000254A264902614161202225494FF04250AF
:100DE00000F0CDF822494FF40072224CC031204669
:100DF00000F0BAF80021204B01200225032604EB65
:100E0000410233F83170A2F8007400EB810733F827
:100E10001770A2F8807405EB810733F81770A2F8F9
:100E2000007506EB810733F81770A2F88075491C2E
:100E30004029E4D311494FF48072114800F09FF823
:100E4000BDE8F0410F494FF480620F4800F097B8B9
:100E50007C21002044000020FFFF720310000031BD
:100E60000000303000003130984C1030000638302F
:100E7000A04A000000003830604F000060510000C0
:100E8000000CF030605500000010F03070B500210B
:100E90000170032242704FF4827242800922027173
:100EA000417101228271C171027220234381027358
:100EB00042738173C2730223037441748174C274D8
:100EC0000723037506234375052383750423C37520
:100ED00001764276022282760322C2761A020262EA
:100EE0009200C2611C4A42621E4A1C4C1C4B126892
:100EF00014605360837EC57E1C0F45EA0315437E54
:100F000045EA032544EA1364037E45EA033544EACF
:100F10001354C37D45EA034544EA1344837D45EAFF
:100F2000035544EA1334437D45EA036544EA132438
:100F3000037D45EA037544EA1314C37C1C43837C98
:100F4000956044EA0314D460D0E907341461536116
:100F5000406A9061D16170BD00F0FF2F0C11201428
:100F6000004910034400002010B5002304E031F8CC
:100F7000134020F813405B1C9342F8D310BD10B50A
:100F8000002304E051F8234040F823405B1C9342C7
:100F9000F8D310BD10B5074A1268D2F82033D2F842
:100FA000244303400C402343F7D0C2F82003C2F887
:100FB000241310BD4400002030B5044606480068E4
:100FC0000649B0FBF1F5002303E0284600F008F8DD
:100FD0005B1CA342F9D330BD04000020306902003D
:100FE000002204E00021491C6429FCD3521C8242E7
:100FF000F8D3704703460A4610B5184600F0CEF8FD
:1010000010B10AB1082B02D340F2014010BD0A32E0
:1010100052F80A1C016052F8061C81600E23D17937
:10102000702403EA4101937904EA031319435379C5
:101030004FF4C07404EAC31319431379A40004EAFB
:1010400043231943D3784FF4605404EAC32319436C
:101050009378E40004EA8333194392F83230A40110
:1010600004EA0353194353784FF0C07404EAC3539E
:1010700019431378A40004EA4363194392F8353006
:1010800003F001030B438361D18DC1F30B01C161F7
:1010900092F842104FF08044937F490704EA83732B
:1010A00043EA1161D37FE41441EAC37192F822301C
:1010B00004EAC323194392F82330641004EA83231B
:1010C000194392F82030640204EAC343194392F8AA
:1010D0002130641004EA834319430164D17E4FF444
:1010E000F063927E03EAC1111B0103EAC22211439D
:1010F0004164002010BD0000082802D340F20140E6
:1011000070474FF4807101228140824003481143AF
:10111000026811430160002070470000A0030650E0
:10112000082802D340F20140704729B30122134B33
:10113000824001290AD002290BD004290CD00829A9
:101140000DD010290ED01F290FD015E0C3F8382379
:1011500012E0C3F840230FE0C3F848230CE0C3F8C3
:10116000502309E0C3F8582306E003F54E731A62D2
:101170009A609A611A611A60002070470000065058
:10118000024800210160816070470000980306500A
:10119000014901200860704798030650014600206D
:1011A00000290FD001290FD0022910D0032911D016
:1011B000042911D0052912D0062913D0072900D1FE
:1011C0000A4870470A48704709485830704708482D
:1011D000B03070470748704706485830704703489A
:1011E000B038704701485838704700006802065010
:1011F00000000650080106502DE9FF4F83B08246DB
:101200008B46C2F388000290D00A019000244FF070
:10121000A040016841F000510160016841F0806127
:10122000016040480221017441740021C17381733F
:10123000417301738172C17280F83C1080F82C10E8
:1012400080F82D1080F83F10002201460698FFF725
:10125000D1FE06981F21FFF763FF0698FFF79EFF58
:10126000DFF8C480C8F800004FF40071C1610026A7
:1012700006980125DFF8B4902D4F85402CE0FFF74C
:101280007FFFD8F800000AEB04010160C0F8089065
:10129000FFF77EFF0698FFF72FFFD7F8C00228421E
:1012A000FBD006980121FFF73BFFD8F80000C0F8FB
:1012B00000900BEB04018160FFF76AFF0698FFF7CF
:1012C0001BFFD7F8C0022842FBD006980121FFF788
:1012D00027FF04F50064761C01988642CFD302985C
:1012E00000281BD0FFF74CFFD8F800000AEB0401E0
:1012F00001600BEB040181600299C161FFF748FFB7
:101300000698FFF7F9FED7F8C0022842FBD00698EE
:1013100007B00121BDE8F04FFFF702BF07B0BDE8FD
:10132000F08F00001C2100204000002000F8002069
:101330000000065010B501F0F7FA00F005F8BDE81E
:101340001040FFF7D5BA00000648016A41F00101DC
:1013500001620548016841F004010160BFF34F8F4D
:1013600030BF70470000084010ED00E00A483C2103
:10137000C1600221016100220270017606224276DC
:1013800082760822C2610122C2765023436280F82D
:10139000201080F8282070475822002010B50D49F1
:1013A0004FF48024A04206D3A0F50022B2F5804F6E
:1013B00001D3084610BD084A136C012BFAD0A04295
:1013C00006D2526C00EB4230A042F3D3084610BD67
:1013D000084610BD01430800000007502DE9F04108
:1013E0000C4617460646C0F30C05B0F5802F07D310
:1013F000A0F50020B0F5804F02D31048BDE8F08181
:101400004FF4005816E03A462146304600F018F8EE
:1014100010B10A48801CF1E76FF30C06281940450B
:1014200004D9C5F50051641A0F4400E000240025DA
:1014300006F50056002CE6D10020DFE70143080046
:101440002DE9F04306460D46174600243046FFF7C7
:10145000A5FF84463048844557D0730B5B03C6F321
:101460000C002E4A4FF4006153F8248042F8248087
:10147000641C8C42F8D34119B1F5005F01D9C0F565
:101480000055002303E01C18F95C11555B1CAB42AE
:10149000F9D32448224901622349016223490162A8
:1014A0004FEA5C314FEA41314165A523C3644FF0F7
:1014B000FF3CC0F858C0D0F88030DB07FBD00024D8
:1014C000002303EBC41800EB830952F82880C9F805
:1014D00000825B1C802BF4D30365D223C36401EB31
:1014E00044234365C0F858C0D0F88030DB07FBD0F8
:1014F000641C102CE4D300210162002308E0F85C96
:10150000F15C884203D00448801CBDE8F0835B1C7A
:10151000AB42F4D30020F8E7014308007800002034
:101520003412CBED00000750785687A9BC9A43656A
:1015300010B501F03F030849FF248C60CB60886040
:101540004869C007FCD1CA60486900F0030002285E
:10155000FAD18C6010BD000000C00240BFF34F8F75
:10156000BFF36F8F0848016841F470010160BFF359
:101570004F8FBFF36F8F0068C0F303500F2801D067
:10158000012070470020704788ED00E070B52A4CBC
:1015900000252078002813D0012810D127480822E0
:1015A00004F1280102F0BCFA24484FF480124FF0F5
:1015B000405102F0B5FAC820FFF7FEFC257070BD5F
:1015C0001F4805601F4D2868016842681E4B016076
:1015D0001A40426001684268016042F4821242602F
:1015E00001F0D0FE28680A21002200F5627040F860
:1015F000681C40F8642C826FC16F22F00102826780
:10160000C16703F025FA08200021FFF7C3FC286812
:1016100000F5806001684268012541F00101016028
:1016200042600269416942F001020261416101F0D8
:10163000EBFD257070BD000048000020F820002060
:101640003C00002044000020FF0F00FF2DE9F04F78
:10165000ADF2C44D02274FF04056042534464FF0FA
:1016600000084FF000090020CDF8B404FE484FF008
:10167000000A4078002830D001282AD1FB48816830
:1016800040681AEB000041EB0A01F74C4FF47A7303
:10169000226A821A92B202FB03F2F54B1B68B2FB7C
:1016A000F3F292B26280C4E90801D4E9040101F0C6
:1016B00019FAA0610246EF48616902F031FA84F834
:1016C00001A0FFF737FE01F004FE02F0C5F8FFF7B6
:1016D000BDF80DF2C44DBDE8F08FE7490020086069
:1016E000DFF898A3DAF8000001684268E44B016073
:1016F0001A40426001684268016042F4821242600E
:10170000D0F81024D0F8141442F00202C0F81024CB
:10171000C0F814140022DB49016542658265C26588
:1017200000218166C166D84901674267FF22D74917
:10173000C0F80012C0F80422FFF794FADAF80000AB
:101740000121D34A00F50270016042601521002298
:101750000161426101F016FEDAF800000E2200215C
:1017600000F5667040F8782C40F8741C816EC26EEB
:1017700021F00F018166C266826FC16F42F00102E3
:101780008267C16703F064F900200090BB4A1068CB
:10179000D0F82013D0F8243311F00C0FF8D0042324
:1017A000C0F820330021C0F824138A46B948B34951
:1017B00050F82A0040F04072B648C03850F82A303D
:1017C000086840F8903F42604FF0000BAB4800685B
:1017D00006664766C0F81042C0F81452D0F81024CC
:1017E000D0F81414042542F00402C0F81024C0F804
:1017F00014140021A84A026341631522C0F818227C
:10180000C0F81C126A03C0F82023C0F82413D0F8D3
:101810000824D0F80C1442F00102C0F80824C0F8E3
:101820000C1409F10109B9F1100F0DD14FF00009A5
:1018300008F10108B8F1100F06D14FF00008DDF8EB
:10184000B404401CCDF8B4044FEA882000EB893181
:10185000DDF8B404022701EB804404F1405426462D
:10186000B8030021FFF796FB0BF1010BBBF1100F42
:10187000ACD30AF1010ABAF1100F97D30098401CBB
:1018800000900098042881D37C4D0822002128680C
:10189000C0F82023C0F8241301F0B6FC2C6804F52E
:1018A000806421686068002641F00F01216060605B
:1018B0002169606941F0010121616061A4F58064E2
:1018C0004FF0425707F104084FF4167997A849469C
:1018D000FEF77DFC01A84946FEF779FC02220623AB
:1018E00000200DF5177C0DF1040900EB023101EB2E
:1018F000032157F831A04CF820A058F8311049F8CE
:101900002010401C80B29628EFD3B034D4F8601376
:10191000D4F8640341F01001C4F86013C4F8640300
:10192000D4F85003D4F8541320F01000C4F8500336
:10193000C4F854134FF2FF0058492160606004213D
:10194000A1600802E0604FF0405121610001606138
:101950000021A161E1612162616204210011A162A3
:10196000E06200204E49216360634FF40061C4F8D7
:101970007012C4F87402D4F85813D4F85C0341F020
:101980000401C4F85813C4F85C0300214FF400604C
:10199000FFF700FB286800F580600268416842F0AC
:1019A0001002026041604FF480473E4C94F82000E2
:1019B000022814D1DFF8E8803A46DFF8EC9041467F
:1019C0004846FEF7EBFBDFF8E4A03A4640465146B6
:1019D000FEF7E4FB3A4649465046FEF7DFFB94F833
:1019E000200008B92E48066000222868B030C0F8F0
:1019F000D020C0F8D42000212D4A0260416000228E
:101A00008260C2608261C2618262C2621E4A103A12
:101A100002634163274A2849C0F85021C0F8541195
:101A2000FFF720F9286801222449C0F80822C0F8ED
:101A30000C1200200090114A0099214800EBC100CF
:101A4000116801F50871D0E900340B604C60D0E9F1
:101A500008348B60CC60D0E910340B614C61D0E964
:101A600018308B61C8612DE048000020005008400C
:101A700010000020F82000203C000020440000203E
:101A8000FF0F00FF01FF01002000003110F51F00D3
:101A900000003830204B0000FFFF720300063F00BB
:101AA000000010305822002000800020004000205C
:101AB00021003F0010F403001F000E000004383026
:101AC000B82100204FF0000BFF48152200210068CC
:101AD000C0F81822C0F81C12D0F81024D0F8141442
:101AE0004FF0000942F01802C0F81024C0F8141496
:101AF000D0F80024D0F8041422F01802C0F8002412
:101B0000C0F804144FF0405100984FF480452F4620
:101B10000BEB800001EB80242646EC4991F8201065
:101B200000297DD0EA4901EB80284FF0010A8002AC
:101B3000CDF8B804C017CDF8BC04E348006800F540
:101B4000D07040F8E06C40F8DC7C40F8D08C40F875
:101B5000CC9C04674567152300228367C2674FF456
:101B60000043C0F88031C0F88421D0F86812D0F862
:101B70006C3241F00404C0F86842C0F86C324FF493
:101B80008045DDF8B8042F4600EB8A0404F1405488
:101B900026460DF597604FEA8A0109C84018CC49DE
:101BA000534110EB010843F1000968000021FFF7E1
:101BB000F1F90AF1010ABAF5807FBED90BF1010BE8
:101BC0000BF0FF0BBBF1040FFFF47EAF0098401C3D
:101BD000C0B2009000980428FFF42DAFBA4E3068D0
:101BE00000F5806002684168002442F0180202603B
:101BF00041604FF48031B74D2846FEF7E8FAB64809
:101C0000046000213068B54A0265416500228265A2
:101C1000C265B14A026641664FF40062826600E026
:101C20001AE1C1662A1D082102674167D0F8102415
:101C3000D0F8141442F00202C0F81024C0F81414B2
:101C4000621EC0F82023C0F82423D0F80024D0F866
:101C5000041422F00202C0F80024C0F80414D0F8E2
:101C60000824D0F80C1442F00102C0F80824C0F88F
:101C70000C1400214FF48070FFF78CF93068B030FD
:101C8000D0F85013D0F8542341F00201C0F850139B
:101C9000C0F85423D0F86023D0F8641342F0100247
:101CA000C0F86023C0F86413D0F85023D0F8541360
:101CB00022F01002C0F85023C0F85413884A894912
:101CC00002604160042282601103C1602A02026145
:101CD0000911416100228261C261026242620822EE
:101CE00049008262C16200212A46026341634A1EA2
:101CF000C0F87022C0F87422D0F85823D0F85C13D2
:101D000042F00402C0F85823C0F85C1300214FF4DD
:101D10000060FFF73FF9306800F5806002684168B5
:101D200042F010020260416000236F494FF400321C
:101D30002846FFF761FA306810220021C0F88021A0
:101D4000C0F88411120369492846FEF727FAFEF706
:101D5000FDFE306800F56670826FC16F42F02002B0
:101D60008267C167826EC16E22F020028266C16600
:101D700000214FF4805240F8782C40F8741C026F18
:101D8000416F42F008020267416700214FF4805022
:101D9000FFF700F93068D0F82811D0F82C21544D05
:101DA000E961D0F80024D0F8041442F02002C0F811
:101DB0000024C0F80414002140F20272026541655B
:101DC00000228265C2658266C2664A49016742672F
:101DD0007F2147F21032C0F80022C0F80412FEF74B
:101DE00041FF3068FF21002200F502708161C2616D
:101DF000026242624049026041600421354A8260C9
:101E0000C1601522002102614161D0F80822D0F89A
:101E10000C1242F04A02C0F80822C0F80C12D0F8A6
:101E2000F821D0F8FC1122F04A02C0F8F821C0F8DD
:101E3000FC114FF48067E868DFF8C0B00188408883
:101E4000890001EB803000EB0B0640F27228286914
:101E50000480DFF874900DE11D49C1F800908846B8
:101E60004FF000094FF0010A8002CDF8C004164877
:101E7000006800F5D07040F8E06C40F8DC7C40F879
:101E8000D08C40F8CC9C04674567152200218267FE
:101E9000C1674FF40042C0F88021C0F88411D0F827
:101EA0006822D0F86C1242F00402C0F86822C0F830
:101EB0006C124FF48045DDF8C0042F4600EB8A0415
:101EC00004F1405426461BE0440000205822002024
:101ED00000001030000030300010383002FFF003F6
:101EE00010070F00FFF003000000A23000001130C7
:101EF0004800002010000031000038300020003081
:101F000068000021FFF746F80AF1010ABAF5807F60
:101F1000ADD953E6D9F800000666476615220021C0
:101F2000C0F81822C0F81C124FF40042C0F8202359
:101F3000C0F82413D0F80824D0F80C1442F00102A1
:101F4000C0F80824C0F80C14601CE9684FF48067DE
:101F500031F8302001EBC0004088920002EB803065
:101F600000EB0B0678010021FFF714F8D9F8000008
:101F7000D0F8A012D0F8A402A9680860D9F800002F
:101F800000F50A70826FC36FC2F30B034B60826F60
:101F9000D0F87CC0D5F804C0C2F30B025CF8222054
:101FA0004A61190D0A4348EA033340F8E83C40F817
:101FB000E42CD0F8E821D0F8EC1142F04002C0F84F
:101FC000E821C0F8EC11F9000022C0F8F810C0F8C0
:101FD000FC20D0F8E021D0F8E41142F01002C0F863
:101FE000E021C0F8E411F8000021FEF7D3FF002142
:101FF000DFF8D8C1A868DCF81C20036C534301EB60
:10200000410250F8320083422FD2E86830F8343071
:102010002869B0F800A00AEB4A0A00EB8A0AAAF87D
:102020000430B0F800A0EB680AEB4A0A03EBC403E3
:1020300000EB8A0A9B788AF80630B0F800A0AB68FB
:102040000AEB4A0A03EBC20300EB8A0A1B798AF8FF
:102050000730AB6853F83220038803EB430300EBEF
:102060008303DA600288521C0280491CC9B202292B
:10207000C0D3641CE8698442FFF44CAFD9F8000077
:10208000B030D0F85023D0F8541342F04A02C0F8D0
:102090005023C0F8541302214FF003120260416034
:1020A000CA0200218260C16000228261C261826234
:1020B000C262474A0263416300228263C2637F2196
:1020C00042F21032C0F85021C0F8541100224149A8
:1020D000C0F85821C0F85C1104213F4AC0F86021C3
:1020E000C0F86411FEF7BEFDD9F8000007220021F8
:1020F00000F508700260416000228260C260D0F882
:10210000E021D0F8E41122F01802C0F8E021C0F874
:10211000E411002446E004EB44064FF4806300EB36
:10212000860188888A79800000EB8232D9F8000025
:1021300002F1405240F8C02F4360C979274A02EBB0
:10214000810101615A104261D0F85023D0F8541334
:1021500042F01802C0F85023C0F854131522002191
:10216000C0F85821C0F85C115A01C0F86022C0F8CC
:102170006412D0F84823D0F84C1342F00402C0F89F
:102180004823C0F84C1358010021FEF703FFD9F88B
:102190000000D0F8A012D0F8A402286900EB860055
:1021A0000172641C28690188A142B4D8D9F80000E2
:1021B00000F580600268416842F0180202604160E8
:1021C000012068700DF2C44DBDE8F08F5822002048
:1021D0001000003100003830000030300008383086
:1021E00010B505484FF480124FF0405101F098FCB3
:1021F00002490020087010BDF8200020582200205D
:1022000010B504480121C06801F004FABDE810408F
:10221000FEF7A2BD5822002030B5264D40F20154F1
:10222000254BA8420CD1012A02D02AB1204630BD4C
:1022300018680843186039E018688843186035E06A
:102240001C4D4035A8420ED1012A02D032B12046A1
:1022500030BD186840EA0140186027E0186820EA9D
:102260000140186022E0134D8035A8420CD1012AAC
:1022700002D02AB1204630BD186C0843186415E01E
:10228000186C8843186411E00A4DC035A8420FD17C
:10229000012A02D032B1204630BD186C40EA01401C
:1022A000186403E0186C20EA01401864002030BD77
:1022B000204630BD000001500000094010B5012249
:1022C0000848114600F04AF8064801229102C03839
:1022D00000F044F8044900200860012002499839C0
:1022E000086010BDC0000150C0040150194B1A4ACB
:1022F000984206D1D0680843D06090680843906047
:1023000023E0144B4033984208D1D06840EA0140A2
:10231000D060906840EA0140906016E00D4B803339
:10232000984206D1D06C0843D064906C0843906406
:102330000BE0084BC033984209D1D06C40EA014011
:10234000D064906C40EA014090640020704740F2F5
:10235000015070470000015000000940012A03D0DD
:1023600002688A430260704702680A43026070474D
:1023700010B508604FF0A0425068C0F303400871E8
:102380001348836900234B7184698B71C369C3F35C
:102390000043CB7153681B0A0B725368C3F303638A
:1023A0008B7252684A72426AC2F34002CA72426A2F
:1023B000C2F300020A73426AC2F380024A73006CDD
:1023C00008610448806888820348C068C88210BDDC
:1023D0000000084000400840005008401C4948697F
:1023E00008604FF0A042506810F47F4F25D050682D
:1023F0000B68C0F307204000B3FBF0F04860506862
:1024000010F0FF0F1CD050684B680006C00DB3FBE6
:10241000F0F08860506810F0706F15D050680A684E
:10242000C0F303604000B2FBF0F08861486841F6F9
:102430005532B0FBF2F0C861704708684860DDE7CC
:10244000486840088860E4E7086840088861ECE76D
:10245000000000202DE9F04186B005460F4600241B
:1024600069462846FFF784FF0F2001F033FA2A4916
:102470008D4207D9012328460022194601F04AFA65
:10248000064606E0002228460123114601F042FAE2
:1024900006462248416A41F002014162416A41F028
:1024A000040141620321002001F09EFA4FF0E02573
:1024B000286920F0010028616FF07F48C5F814807A
:1024C0000020A861B8B201F0DDFC05202861144AA3
:1024D00003E02869C00300D5641C50688007F8D564
:1024E000AB6901205060A6FB0701090141EA1071A8
:1024F0000001A8EB0302C4EB04631A44521C00233E
:10250000FDF70CFE0446684601F026FA0548046112
:1025100006B02046BDE8F08180F0FA0200000840D5
:102520000040084000000020F0B587B00E460024AF
:1025300001A9FFF71DFF1F48416A21F00401416214
:10254000416A21F0020141620321002001F04CFAAE
:102550004FF0E025286920F0010028616FF07F47E7
:102560006F610020A861B0B201F08CFC05202861E9
:10257000114803E02969C90300D5641C4168890733
:10258000F8D5A969012242600C4D2A69781AC4EB7A
:1025900004610844401CA2FB000132010023FDF746
:1025A000BDFD044601A801F0D7F96C6107B02046D3
:1025B000F0BD00000000084000400840000000207E
:1025C0002DE9F04FBFF34F8FBFF36F8FDFF8A4916A
:1025D0004FF0000CC9F800C0BFF34F8FBFF36F8FEF
:1025E000DFF894A1CAF800C0BFF34F8FAAF1040B23
:1025F000DBF80000C0F34E315E4C43F6FF7510343B
:10260000C0F3C906304605EA411343EA80722260EE
:10261000401E421CF9D1491E481CF3D1BFF34F8F15
:10262000BFF36F8FBFF34F8FBFF36F8FDFF848811A
:10263000A8F17008D8F8000020F40030C8F80000B5
:10264000C9F800C0BFF34F8FBFF36F8FCAF800C047
:10265000BFF34F8FD8F8000020F48030C8F8000096
:10266000BFF34F8FDBF80000C0F34E31414EC0F393
:10267000C9072436384605EA411343EA80723260BE
:10268000401E421CF9D1491E481CF3D1BFF34F8FA5
:10269000BFF36F8FBFF35F8F374A603A106820F443
:1026A00080301060344B1033186820F0010018603F
:1026B0003148324918300160011D314E0E60314EF3
:1026C00006602F4E16360E602F4F07600E602F4E9D
:1026D00006602F4E0E602F4E0660294810300860AD
:1026E00005201860106840F480301060BFF34F8FF1
:1026F000BFF36F8FD8F80000C00321D4CAF800C020
:10270000BFF34F8FDBF80000C0F34E31C0F3C906B2
:10271000304605EA411242EA80732360401E431CA2
:10272000F9D1491E481CF3D1BFF34F8FD8F80000F0
:1027300040F48030C8F80000BFF34F8FBFF36F8FB5
:10274000D8F80000800313D4BFF34F8FBFF36F8F0F
:10275000C9F800C0BFF34F8FBFF36F8FD8F80000E8
:1027600040F40030C8F80000BFF34F8FBFF36F8F05
:10277000BDE8F08F50EF00E084ED00E011000800AC
:102780001B0010031300C03114000050150000633B
:1027900027000803160000300A498A680A48036ABD
:1027A0001A430262026A8A604A69436A1A434262B1
:1027B000426A4A610A6A836A1A438262806A0862CC
:1027C0007047000000300840000000201C49C86825
:1027D00008604FF0A042506810F47F4F25D0506839
:1027E0000B68C0F307204000B3FBF0F0486050686E
:1027F00010F0FF0F1CD050684B680006C00DB3FBF3
:10280000F0F08860506810F0706F15D050680A685A
:10281000C0F303604000B2FBF0F08861486841F605
:102820005532B0FBF2F0C861704708684860DDE7D8
:10283000486840088860E4E7086840088861ECE779
:102840000000002010B507483021FDF7C0FC00F063
:10285000FFFEFEF78BFD00F069FFBDE8104000F0C1
:1028600089B80000582200202DE9F041002840F2EC
:10287000011C03D0102901D2092A02D36046BDE809
:10288000F0818F00DFF898800F25264E02FA07F3BB
:1028900005FA07F4A1F10807BF00BD40BA40404562
:1028A0000BD1082904D2B069A0430343B36133E0DC
:1028B000F069A8430243F2612EE0194F4037B84255
:1028C0000BD1082904D2306AA0430343336223E0CA
:1028D000706AA843024372621EE0114F8037B8420B
:1028E0000BD1082904D2B06DA0430343B36513E0B4
:1028F000F06DA8430243F2650EE0094FC037B842BD
:102900000CD1082904D2306EA0430343336603E0A0
:10291000706EA843024372660020B0E76046AEE7DF
:10292000000001500000094010B50F48002101606F
:10293000C0F880100D48416A21F004014162416AEB
:1029400021F002014162032101610948416821F43B
:102950000021416001F068FA4FF0A040016841F4A5
:102960008031016010BD00000000015000000840EF
:102970000030084010B520A001F0B6FA2A4C60687B
:10298000FDF7B9FC02460B4628A001F0ADFAA0689D
:10299000FDF7B1FC02460B4628A001F0A5FAE1685C
:1029A0002AA001F0A1FA21692BA001F09DFA217E55
:1029B0002CA001F099FA617E2EA001F095FAA17E7B
:1029C00030A001F091FAE16932A001F08DFAE17EC8
:1029D00034A001F089FA94F8201036A001F084FAAE
:1029E000616A38A001F080FA94F8281039A0BDE897
:1029F000104001F079BA0000536F66745665726931
:102A0000736F6E3D534B593332423735305F5065EB
:102A10006F706C65547261636B5F56322E322E3864
:102A20002E31340D0A0000005822002052616E67DA
:102A3000655265733D25666D0D0A000056656C5242
:102A400065733D25666D2F730D0A000054494D4591
:102A50003D25646D730D0A0050524F473D253032BD
:102A6000640D0A0063666172546856473D25303232
:102A7000640D0A0063666172546856533D25303216
:102A8000640D0A00636661725468563D25303264F5
:102A90000D0A000064706B54687265733D25303216
:102AA000640D0A006E756D544C563D253032640D30
:102AB0000A0000006D65616E456E3D253032640D83
:102AC0000A00000063686972704761703D25647593
:102AD000730D0A0062616E6457696474683D256411
:102AE0000D0A000070B5002555230B70AA234B700A
:102AF000234CE37E012B41D1038803EBC305AD1DBD
:102B00008D702B0ACB702B0C0B712B0E4B718A71B5
:102B1000120ACA71E27E0A7201224A7202788A722D
:102B20000288120ACA720C24002323E003EB43023A
:102B300000EB820216790E55641C9688360A0E55F3
:102B4000641C96790E55641CD6790E55641C167A51
:102B50000E55641C167B0E55641C9689360A0E555C
:102B6000641CD668360C0E55641CD268120E0A55C9
:102B7000641C5B1C02889A42D8D8AD1D284670BDE3
:102B8000582200202DE9F04F89B0002705970697BD
:102B900007970197029703970497B846FE4D287A46
:102BA00001287CD1FE49FD4808644FF0E029D9F89E
:102BB0001000C00707D04FF00108D9F8100020F02E
:102BC0000100C9F81000F7482021FDF700FB6868F4
:102BD000401E6860F0480222F3A10A300890FDF719
:102BE00001FB10B96868022807D008980822EFA1F5
:102BF000FDF7F8FAF04C20B106E0F0A001F074F90E
:102C0000C9E26868082806D008980822EDA1FDF7F7
:102C1000E9FA18B105E001202070BCE268680828D4
:102C200012D008980922EAA1FDF7DCFA78B10898D9
:102C30000822EAA1FDF7D6FADFF85CA34FF40026DC
:102C40000AF1120A50B157E001F02AF9FEE7DBA0C1
:102C500001F04AF96F64022020709CE26A68082A39
:102C60004AD0083A062A47D205A95046FDF79CFEED
:102C70000028C5D16868092801D00A2802D19DF82A
:102C80001410E1600B2801D00C280CD19DF8141011
:102C90009DF8152001EBC10303EB011100E088E270
:102CA00002EB8101E1600D2811D19DF8140042F280
:102CB000107110FB01F19DF8150000EBC00202EB52
:102CC000001001EB80009DF816100844E060E068F9
:102CD0004EF66021884293D801A901F0FDF8042145
:102CE000304601AAFEF77AFB002889D13168E160FD
:102CF000BDA001F0F9F84EE208980822BEA1FDF748
:102D000071FA10B968680A2806D008980B22BDA18C
:102D1000FDF768FAE8B141E00222504605A9FDF747
:102D200043FE002899D19DF814002061411E02291C
:102D300093D801A901F0D0F8B548042101AAFEF703
:102D40004DFB002889D171682161B2A001F0CCF857
:102D500021E26A680B2A21D00B3A032A1ED28E4840
:102D600005A91530FDF720FE0028C4D19DF81400F8
:102D7000A076811E6129BED201A901F0ADF8A44858
:102D8000042101AA1030FEF729FB0028B3D1706995
:102D9000C1B2A176A3A001F0A7F8FCE108980C222B
:102DA000A4A1FDF71FFADFF8F0B10BF1160B10BB71
:102DB0006A680C2A1FD00C3A032A1CD205A958466F
:102DC000FDF7F2FD002896D19DF8140020766328C7
:102DD00091D201A901F080F88D48042101AA0830A0
:102DE000FEF7FCFA002886D1F068C1B2217695A0E2
:102DF00001F07AF8CFE108980C2297A1FDF7F2F9DB
:102E000010BB6A680C2A1FD00C3A032A1CD205A9F1
:102E10005846FDF7C9FD00289AD19DF81400607648
:102E2000632895D201A901F057F87948042101AA35
:102E30000C30FEF7D3FA00288AD13069C1B261762E
:102E400089A001F051F8A6E1089809228BA1FDF7AD
:102E5000C9F910BB6A68092A1FD0093A032A1CD293
:102E60004D4805A91330FDF79FFD002895D19DF829
:102E70001400E061632890D801A901F02DF864489E
:102E8000042101AA1430FEF7A9FA002885D1B169FE
:102E9000E1617DA001F028F87DE108980A227FA178
:102EA000FDF7A0F920BB6A680A2A21D00A3A032A52
:102EB0001ED2394805A91430FDF776FD002899D1B6
:102EC0009DF81400E076411E022910D801A901F0F6
:102ED00003F84F48042101AA1830FEF77FFA0028B2
:102EE00005D1F069C1B2E1766FA000F0FDFF52E1BB
:102EF0000898082270A1FDF775F918BB6A68082ABE
:102F000020D0083A032A1DD205A95046FDF74CFDF2
:102F100000283DD19DF8140084F820000A2837D8F5
:102F200001A900F0D9FF3A48042101AA1C30FEF79C
:102F300055FA68BB306AC1B284F8201061A000F075
:102F4000D3FF28E10898072262A1FDF74BF900BBE7
:102F50006A68072A1DD0D01F06281AD20E48D21F31
:102F600005A91130FDF720FD90B96868082801D047
:102F7000092802D19DF8141061620A2801D00B289B
:102F800008D19DF814109DF8152001EBC103A5E0B0
:102F9000FBE0D1E0A7E00000B02000203656C9A930
:102FA00000000840382200204154000041542B53B7
:102FB00054415254000000005822002041542B4F2D
:102FC0004B0A000041542B52455345540000000069
:102FD00041542B494D504F525400000041542B5442
:102FE000494D453D0000000041542B54494D453D9D
:102FF00025640D0A0000000041542B50524F473DFC
:103000000000000041542B434641525448563D00B5
:103010000400080041542B50726F6A3D2530326421
:103020000D0A000041542B636661725448563D25D9
:10303000640D0A0041542B43464152544856473DC3
:103040000000000041542B63666172544856473DAE
:1030500025640D0A0000000041542B4346415254A0
:103060004856533D0000000041542B636661725482
:103070004856533D25640D0A0000000041542B447E
:10308000504B54483D00000041542B64706B544831
:103090007265733D25640D0A0000000041542B4EFB
:1030A000554D544C563D000041542B6E756D544C9B
:1030B000563D25640D0A000041542B4D45414E3DBF
:1030C0000000000041542B4D45414E3D25303264F7
:1030D0000D0A000041542B4741503D0003EB011104
:1030E00002EB810161620C2811D19DF8140042F2BB
:1030F000107110FB01F19DF8150000EBC00202EB0E
:10310000001001EB80009DF8161008446062606AB0
:10311000A0F15001B1F5436F3DD801A900F0DCFEEC
:103120002648042101AAFEF759F970BB716A616251
:1031300023A000F0D9FE2EE00898062223A1FDF777
:1031400051F818BB6A68062A20D0901F03281DD2A8
:103150002048921F05A9FDF727FCB0B99DF814007F
:1031600084F828000A2816D801A900F0B5FE1348F3
:10317000042101AA001DFEF731F930B9B06AC1B2CD
:1031800084F8281014A000F0AFFE04E06A68164826
:10319000089900F0C5FC6F602F72B8F1010F05D1DE
:1031A000D9F8100040F00100C9F81000002000F02C
:1031B000E7F909B00020BDE8F08F00002400080006
:1031C00041542B4741503D25640D0A0041542B4288
:1031D000573D0000C020002041542B42573D253070
:1031E00032640D0A00000000F820002010B50548E8
:1031F000012404600120FDF7DFFE024898380460D6
:1032000010BD0000C004015010B501F025FC0022E3
:10321000012310460C2100F013F90022012310466F
:103220000D2100F00DF9002201231046142100F0B9
:1032300007F9002201231046152100F001F90022B0
:1032400001231046162100F0FBF80022012310464E
:103250001E2100F0F5F80022012310461F2100F086
:10326000EFF8002201231046202100F0E9F80022A7
:1032700001231046212100F0E3F80022012310462B
:10328000222100F0DDF8002201231046062100F083
:10329000D7F8002201231046072100F0D1F80022C0
:1032A00001231046082100F0CBF80022012310462C
:1032B000092100F0C5F80022012310460A2100F080
:1032C000BFF8002201231046BDE810400B2100F09A
:1032D000B7B810B5FFF78AFF01230E211A46BDE8E3
:1032E0001040002000F0ACB838B5154601F03F00A2
:1032F00040F040010D480170FF21417081700020B5
:103300000B4C20600220094B032208490A3300902D
:1033100001F1140000F0A0FC0121216003490A31F1
:103320008A78497842EA0121298038BD7820002036
:103330002804015038B51D4610487E23037001F063
:103340007F01417051018170FF21C1700171002026
:103350000B4C20600220094B052208490A330090DB
:1033600001F1140000F078FC0121216003490A31C9
:103370000A79C97842EA0121298038BD78200020E5
:103380002804015001F02EBA2DE9FF4F81B0934679
:103390000EAE1D4696E8C00701240B460199072290
:1033A0000020009400F086F80199062200205B4678
:1033B000009400F07FF80199052200202B4600942C
:1033C00000F078F80199042200203346009400F0C0
:1033D00071F80199032200203B46009400F06AF83E
:1033E0000199022200204346009400F063F80199FD
:1033F000012200204B46009400F05CF80022019965
:1034000053461046009400F055F805B0BDE8F08F23
:1034100013B59DF8040000F03F0040F080000190DB
:10342000054C0020206002230448012201A900F07D
:1034300051FC012020601CBD280401508C2000207C
:103440002DE9D04380460E4614461F462A46314693
:103450004046FFF749FF2988A14200D1C0B1134877
:1034600006F03F010170210A417084700020DFF8EE
:103470004090C9F8000002230C49032201F1140016
:1034800000F028FC0121C9F80010012F03D00BE047
:103490000020BDE8D0832A4631464046FFF724FF8E
:1034A0002988A14200D00120C0B2F2E77820002094
:1034B000280401502DE9F84FDDF8289082460F4688
:1034C00090461C463346424639465046FFF732FF87
:1034D0003188A14200D1F8B11A483E21017007F0AD
:1034E0007F0141704FEA48118170210AC170047157
:1034F0000020DFF854B0CBF8000002231149052268
:1035000001F1140000F0E6FB05460120CBF80000B5
:10351000B9F1010F03D012E00020BDE8F88F334667
:10352000424639465046FFF705FF3388A34206D08E
:1035300006A0424639460093234600F0D5FCE8B287
:10354000EBE70000782000202804015052616464F9
:10355000723D253032782C43616464723D253032EF
:10356000782C5772697465646174613D25303478D4
:103570002C52656164646174613D253034580A00E1
:10358000184A0028184904D0012818D040F60140F4
:103590007047486A20F001004862086C134B98425B
:1035A00002D11348086405E0086C124B984201D11F
:1035B00000200864104800681060002070470F4821
:1035C000036843F480230360036843F4002303602B
:1035D000486A40F0010048624FF40040106000204B
:1035E000704700002C000020000008401413EBEC92
:1035F00063659C9A3656C9A9100000200000094056
:103600000348816921F0020181610020FFF7B8BF02
:10361000003008400C4A126850434FF47A52B0FB15
:10362000F2F082B20948C260426922F001024261AE
:10363000012904D0416921F00201416170474169CB
:1036400041F00201416170472C0000200050084009
:1036500030B54FF4002210682849C8604EF6602348
:10366000984201D96420C860506808610224401E55
:10367000032800D30C6100230B70D068C0B2087619
:10368000632800D90C761069C0B2487608256328F3
:1036900000D94D765069C0B28876401E632800D3A9
:1036A0008D769069C861632801D90A20C861D06904
:1036B000C0B2C876401E032801D30120C876106A24
:1036C000C0B281F8200028B1012803D0022801D01F
:1036D00081F82040506A48625038B0F5436F01D9F4
:1036E00050204862906AC0B281F82800002803D0B8
:1036F000012801D081F8283030BD00005822002078
:10370000094991F83C0000280BD0086C401C086463
:10371000B0F5FA6F05D90020086481F83C0001205B
:103720000872FFF72FBA0000B020002070B50B48D8
:103730000B4D95F8281001290ED00A4C0121FCF7F9
:10374000CEFD2146FCF75BFD01460748FCF789FDED
:1037500068600648A86070BD054CEFE7CDCC4C42D0
:10376000582200204C555F4C180D8F4D8334003E7D
:10377000F769E14C10B54FF0A040016841F08001BD
:1037800001601B4881684FF6FF7211438160194C3C
:103790004FF400512046FEF7A9FD4FF4804120462A
:1037A000FEF7A4FD4FF400412046FEF79FFD0122E5
:1037B00020460D21FFF758F8012220460E21FFF781
:1037C00053F8012220460F21FFF74EF80B480A4913
:1037D00001600B4A8A600021416081600122C26061
:1037E0000161426104210162BDE8104000F0F0B9BE
:1037F000000009400000015000C000408C20002063
:10380000A51A005A10B51148416A21F0020141621F
:10381000416A21F00401416201220021082000F0E8
:1038200063F80121002000F0DFF8094C64212046F4
:10383000FEF710FE64212046FEF776FEFEF7CEFD71
:10384000BDE81040034800F083BA000000000840C3
:10385000005A6202F820002010B5082000F03AF863
:103860000E4C606A20F00200606200230C480422C3
:10387000194600F04FF8606A40F002006062606A2A
:1038800040F0040060620221002000F0ADF8FEF775
:103890009DFFBDE81040034800F05ABA0000084000
:1038A000005A6202F82000204FF0A0414A6822F03E
:1038B000706242EA0060486070470000044AD169C3
:1038C00021F00C01D16141EA8000D0617047000015
:1038D000000008404FF0A0414A6822F4702242EAFA
:1038E000004048607047000030B5094CA3694FF0B4
:1038F000E06505EA006023F078630343200200EAF4
:10390000C1600343200100EAC2500343A36130BDFC
:103910000000084070B50E4CA56940F20F46B54353
:1039200045EA81251543A561E56925F4803545EA19
:103930000345E561491CB0FBF1F008325043022118
:1039400001EB4301B0FBF1F10248C160C06870BDFA
:10395000000008400000002010B504462079FFF761
:10396000B9FFE379A27961792068FFF7D3FFA07AE4
:10397000FFF79AFFE17A194801291FD0416A21F027
:1039800002014162217B01291DD0416A21F0010120
:103990004162617B01291BD0416A21F0040141622F
:1039A000216901640E49A08A88600E49E08AC860D6
:1039B000617A207ABDE8104000F016B8416A41F003
:1039C00002014162DEE7416A41F001014162E0E744
:1039D000416A41F004014162E2E700000000084052
:1039E00000400840005008404FF0A04253686FF379
:1039F0000F0343EA00200843506070470248016803
:103A0000491C0160704700003400002010B51E49B9
:103A10001C4808641D4801684FF0FF31016042688E
:103A20004160026822F080620260426822F0806297
:103A30004260C268C16002690161826981610F20D0
:103A4000FFF748FF00F030F8FEF738FCFFF792FE72
:103A5000FFF73FFCFFF7D6FEFFF7FEFE4FF0A0405A
:103A6000016841F080510160016841F0006101602E
:103A7000FCF7ECFEFFF7C4FDBDE8104042F2107009
:103A800000F01EBA1413EBEC0000084000300840B0
:103A900004480349016400210161FDF75FBD000096
:103AA0001413EBEC0000084010B54FF0A040016883
:103AB00041F480710160154C012202212046FEF77D
:103AC000D3FE012220460321FEF7CEFE114C104802
:103AD00020600121A1610020206161610E496160C7
:103AE000A060204600F034F90C49802008601F20B7
:103AF000216848612068C16821F00201C160A4F119
:103B00004800BDE810404821FCF761BB400001506F
:103B100000000140F820002080841E0000E100E049
:103B200000F05CB970B51A4C626990072ED519483F
:103B30000025194900780B68483920B1012812D0B6
:103B400002281CD114E0087A00281FD1012081F836
:103B50003C000D645B6810484D683E382B54486843
:103B6000401C48600BE00D48056000F099F9FEE745
:103B70005B684FF04055486C2B54401C4864D0069D
:103B800004D507A000F0B0F91020606170BD0000FE
:103B90000000014058220020F8200020C0040150FD
:103BA0005B434F4E535D636F6E6669672072656756
:103BB0005F697372204552524F52210D0A00000076
:103BC0000068FF21816170470068FF2141617047F3
:103BD00030B50246002A23D01046FFF7F1FF104609
:103BE000FFF7F2FF10680021C161106801621089BF
:103BF0005369400440EA0310136940EA8310938933
:103C000040EA0340938840EA8340136818621068D2
:103C1000036A43F0030303625068012803D013E0F2
:103C200040F2012030BD9069012804D11068036A78
:103C300043F4002303621068036A4FF0F875948B15
:103C400005EA0454234303621368106A586210683B
:103C5000C162002030BD00002DE9F04180460E46D3
:103C6000069F1B4800684743B8F1000F0CD05EB1B7
:103C7000002A09DD43B14046FFF7A2FF4046FFF7A7
:103C8000A3FF40F202201EE040F20120BDE8F081D7
:103C9000D8F80040317861600024D8F8005002E084
:103CA000641CBC42F2D86969C907F9D0002402E05B
:103CB000641CBC42EAD869698907F9D5696803F8C8
:103CC000011B761C521E002AE2DC0020DEE7000009
:103CD0001C000020F0B505460E461C480068434312
:103CE000002D02D00EB1002A02DC40F20120F0BD0E
:103CF0002846FFF765FF2846FFF766FF042740F2D6
:103D0000022C13E0296830784860012A01D1286824
:103D100047610024286804E0641C9C4201D9604685
:103D2000F0BD4169C907F7D0761C521E002AE9DCB4
:103D30000020296804E0401C984201D96046F0BD8B
:103D40004A695207F7D54F610020F0BD1C000020E2
:103D5000024600B5002A3CD01046FFF731FF10465E
:103D6000FFF732FF90695169000140EA81109168C4
:103D700040EA8120116921B1D368490241EA032157
:103D8000084340F0030013680121D96111680862FB
:103D90001148006851680001B0FBF1F0030900F020
:103DA0000101C0F34200014403EBD10001F007011F
:103DB0000E2303EA41011368996211688B6A23F0AC
:103DC00001038B6200B1401E116880B2486200207E
:103DD00000BD40F2012000BD0800002010B50446DF
:103DE0000B46002C02D00BB1002A02DC40F201206D
:103DF00010BD2046FFF7E4FE2046FFF7E5FE08E091
:103E000021681878486020684169C907FCD05B1CAC
:103E1000521E002AF4DC206841694907FCD50421C0
:103E20004161002010BD00000648026C06498A422C
:103E300004D0026C054B9A4201D1016470470449D9
:103E400001647047000008401413EBEC3656C9A912
:103E500063659C9A0748026C07498A4202D1074968
:103E600001647047016C064A9142FAD10021016455
:103E700070470000000008401413EBEC3656C9A947
:103E800063659C9A034600B5FFF7E4FF03490322EC
:103E90004A608B600120486000BD0000004008407F
:103EA0000549044808640021044881600F214160ED
:103EB000704700003656C9A900000840004008407D
:103EC0000449096848434FF47A51B0FBF1F080B2DD
:103ED000FFF7D8BF100000200870020A4A70020CD9
:103EE0008A70000EC87070470FB4054B10B503A957
:103EF000044A029800F0DAF810BC5DF814FB0000E8
:103F0000B34700003000002002E008C8121F08C1BB
:103F1000002AFAD170477047002001E001C1121F4A
:103F2000002AFBD1704700002DE9FF5F82B000211D
:103F3000DDE90430020DDDF840B0034318D044F64B
:103F40001050A2F2FF3242431514119801281FD0DD
:103F5000A5EB0B00401C5FEA000A4FF000064E4F35
:103F6000DFF83891B046504615D5CAF1000413E089
:103F7000119801244AA3012801D16FEA0B0102988C
:103F8000119AC0E90031C0E9024206B0BDE8F09FD5
:103F9000CBF10000DFE704460021404A491842EB1C
:103FA0000450CDE9001012E0E00707D032463B464E
:103FB00040464946FCF7B6FA8046894632463B46BB
:103FC00010461946FCF7AEFA06460F466410002C60
:103FD000EAD1DDE90401DDE90023BAF1000F06DAD8
:103FE000FCF7A0FA42464B46FCF79CFA05E0FCF7CA
:103FF0000BFB42464B46FCF707FB04460E460022ED
:10400000284BFCF789FB03D84FF0FF30014607E04F
:104010000022254B20463146FCF7DDF9FCF763FB17
:10402000102409E0002C0ADB0A220023FCF776F8B2
:10403000039B30321A55641E50EA0102F2D1641C0F
:10404000039AC4F111031444119A012A03D00122E6
:1040500008430DD10AE0084304D000204FF0110BB3
:10406000119072E7A3EB0B056D1E0DE05B4504DDBF
:104070004FF0000205F1010504E003DA4FF0000201
:10408000A5F10105002AECD002981199C0E902318E
:10409000C0E9004579E70000000014400000F03F4F
:1040A000300000000000F0430000E03F2DE9FF4F2A
:1040B00095B09A46884606460025EEE1252877D138
:1040C00000242746F94A0121039400E0044316F82E
:1040D000013F203B01FA03F01042F7D130782A2843
:1040E00011D06FF02F033078A0F13002092A16D8D2
:1040F000039A44F0020402EB820203EB42021044F2
:10410000761C0390EFE758F8042B0392002A03DA99
:10411000504244F40054039044F00204761C30787A
:104120002E2816D116F8010F44F004042A280DD0C9
:104130006FF02F023078A0F13003092B09D807EB7C
:10414000870302EB4303C718761CF3E758F8047B98
:10415000761C30786C280FD006DC4C2817D06828E5
:104160000DD06A2814D104E0742810D07A280FD119
:104170000DE044F400140AE044F4801401E044F437
:1041800040147278824202D104F58014761C761CA9
:10419000307866280BD013DC582877D009DC00284B
:1041A00075D04528F6D04628F4D047281AD193E197
:1041B00018E0632835D0642879D0652812D18BE1C6
:1041C000702873D008DC6728F1D069286FD06E287A
:1041D0000DD06F2806D1ACE073282CD0752874D090
:1041E000782853D05246179990476D1C54E1C4F378
:1041F0000250022809D003280DD0D8F80010042856
:104200000DD00D6008F1040846E1D8F80010EA1757
:10421000C1E90052F6E7D8F800100D80F2E70D7002
:10422000F0E718F8041B8DF8001000208DF801004D
:10423000EB46012003E058F804BB4FF0FF30610764
:104240004FF0000102D40DE009F101018946B942A5
:104250000FDA8145F8DB1BF809100029F4D108E0DA
:1042600009F1010189468142FADB1BF80910002996
:10427000F6D103985346A0EB090721463846179A12
:1042800000F080FA284400EB090507E044E008E16B
:104290000DE01BF8010B524617999047B9F101093F
:1042A000F7D2534621463846179AF2E039E00A2100
:1042B000C4F302524FF0000B0091022A06D058F8C6
:1042C000040BC117032A09D00AE023E008F1070014
:1042D00020F00702F2E80201904605E000B2C117A3
:1042E000042A01D140B2C117002906DA0A4600218A
:1042F000404261EB02012D2202E0220504D52B226F
:104300008DF80420012203E0E20701D02022F7E724
:10431000914657E00A2100E010214FF0000B009178
:104320000BE010214FF0000B44F00404082700912B
:1043300003E008204FF0000B0090C4F30252022A61
:1043400005D058F8040B0021032A08D008E008F132
:10435000070020F00702F2E80201904603E080B275
:10436000042A00D1C0B24FF0000922072AD53278C2
:10437000702A07D0DDF800C08CF0100C5CEA0B0C42
:1043800005D00EE040228DF80420012208E050EA1A
:10439000010306D030238DF804308DF80520022269
:1043A0009146009B83F0080353EA0B030AD150EABD
:1043B000010201D1620705D530228DF804204FF0AB
:1043C00001097F1E3278582A04D039A20C920CAA17
:1043D00002920BE03BA2F9E75B46009AFBF79EFED8
:1043E0000C9B9B5C029A521E0292137050EA0102CF
:1043F000F2D1029804A9081A00F1200B600702D537
:1044000024F4803400E001275F4502DDA7EB0B00B8
:1044100000E0002000EB0B01009003984944401A93
:104420000390E00306D453462146179A039800F000
:10443000A9F90544002706E001A85246C05D179976
:1044400090476D1C7F1C4F45F6DBE0030CD55346AF
:104450002146179A039800F095F9054404E03020AE
:104460005246179990476D1C0099481E00900029EC
:10447000F5DC08E00298029952460078491C029146
:10448000179990476D1CBBF10001ABF1010BF1DCFA
:104490005BE100F065F90544761C307800287FF474
:1044A0000DAE19B02846BDE8F08F000009280100C4
:1044B000303132333435363738396162636465669A
:1044C000000000003031323334353637383941425C
:1044D0004344454600000000600700D4062708F169
:1044E000070020F00700F0E80223804603F0004CAC
:1044F0005FEA0C0001D097A009E0200501D596A045
:1045000005E0E00701D095A001E0AFF24C00139068
:10451000307823F0004365280CD006DC452809D00C
:1045200046281DD047287FD13BE0662818D0672851
:104530007AD136E00021112F01DB112000E0781C38
:10454000CDE9000104A90CA8FFF7EEFCDDE90D019F
:104550000C9A4FF0000B07F10109109200914EE008
:104560004FF000400097CDE9011004A90CA8FFF717
:10457000DBFCDDE90D020C9B0F994FF0000B91461F
:104580001093009211B9791C00EB0109B7EB0900F7
:1045900003D4C0F1FF3B07F10109A9EB070001902B
:1045A00042E0012F00DA01270021112F01DD112047
:1045B00000E03846CDE9000104A90CA8FFF7B4FCDF
:1045C000DDE90D010C9A00914FF0000BB9461092F5
:1045D00021070FD4009A4A4503DA914601E0A9F178
:1045E0000109B9F1010F05DD109AA9F10101515C32
:1045F0003029F4D0B84202DA10F1040F03DA0121B5
:10460000CDE9011010E0002803DC8344A9EB000190
:1046100002E0411C494500DD8946A0EB0B00401C2F
:1046200001904FF000400290200705D401984845C2
:1046300002DB4FF0FF30019000208DF84B00029814
:104640000DF14B07B0F1004F25D002200C902B202C
:104650000D90029800280CDA404202902D200D9017
:1046600007E00A210298FBF759FE3031029007F863
:10467000011D0C99481E0C900029F2DC02980028BC
:10468000EFD1791E0D980870307800F0200040F0CE
:10469000450007F8020D11A8C01BC01D0290139819
:1046A000007800B1012000EB0901019801EBE071F5
:1046B000029801440398401A401E0390E00306D478
:1046C00053462146179A039800F05CF80544139866
:1046D000007818B15246179990476D1CE00323D516
:1046E00053462146179A039800F04CF805441BE006
:1046F000BBF1000F07DB0098584504DD10981799AF
:1047000010F80B0001E017993020524690470198AD
:104710000BF1010B401E05F10105019004D12E2083
:104720005246179990476D1CB9F10001A9F1010992
:10473000DEDC05E017F8010B5246179990476D1C17
:104740000299481E02900029F4DC53462146179A2C
:1047500003989EE62D0000002B00000020000000C2
:104760002DE9F041044600251E461746880404D46E
:1047700005E039462020B0476D1C641EF9D5284657
:10478000BDE8F0812DE9F041044600251E46904623
:10479000C80301D5302700E02027880404D505E0B0
:1047A00041463846B0476D1C641EF9D52846BDE821
:1047B000F08100F00DB80220FFF780F8FFF726F92E
:1047C000FDF7FEFEFCF7BEF8FCF7C4F8FCE70000BE
:1047D000034948604869C007FCD0002070470000CA
:1047E000000001402DE9F04F85B001230C2100208D
:1047F0004FF45462FEF724FE01234CF2C0020D2157
:104800000020FEF71DFE012340F61F0214210020A8
:10481000FEF716FE0123102215210020FEF710FEE0
:104820008A4C94F8280001287DD0012341F23032CF
:1048300016210020FEF704FE002201231046172156
:10484000FEF7FEFD012344F207021E210020FEF7C1
:10485000F7FD012345F238121F210020FEF7F0FD7D
:10486000012343F2037220210020FEF7E9FD00221C
:10487000012310462121FEF7E3FD01232221002020
:104880004FF41042FEF7DCFD0123062100204FF417
:104890007F42FEF7D5FD0123322207210020FEF7DB
:1048A000CFFD0123FF2208210020FEF7C9FD0022D1
:1048B000012310460921FEF7C3FD01230A21002030
:1048C0004FF44052FEF7BCFD012340F201420B21A0
:1048D0000020FEF7B5FD012347F26D3204210020D0
:1048E000FEF7AEFD0022012310460521FEF7A8FDCC
:1048F00094F828004FF492714FF6FF7244F201458C
:1049000001284BF2853640F24C4742F2241841F21E
:10491000241944F2241A48F2241B4ED0606A41380C
:1049200000EB800000E040E002EA800404910021F6
:1049300040F2AF43C9220846CDE90076CDE90245F1
:10494000FEF722FDCDE90358C92240F2AF43002112
:1049500002940120CDE90076FEF716FDCDE903595A
:10496000C92240F2AF43002102940220CDE9007633
:10497000FEF70AFDCDE9035AC92240F2AF430021F8
:1049800002940320CDE90076FEF7FEFCCDE9035B3F
:10499000C92240F2AF43002102940420CDE9007601
:1049A000FEF7F2FC05B0BDE8F08F012341F21012D2
:1049B00016210020FEF744FD3EE7606A4B3800EB0D
:1049C000800002EA80040491002140F67413CDE9CE
:1049D0000076CDE9024540F291120846FEF7D4FC7C
:1049E000CDE90358002140F67413012040F29112E2
:1049F000CDE900760294FEF7C7FCCDE9035900210A
:104A000040F67413022040F29112CDE90076029430
:104A1000FEF7BAFCCDE9035A002140F674130320D7
:104A200040F29112CDE900760294FEF7ADFCCDE99B
:104A3000035B002140F67413042040F29112CDE98B
:104A400000760294FEF7A0FCACE70000582200209C
:104A500000210120FEF7DCBC02210120FEF7D8BCBA
:104A600000100010E7AEEB1FAC1E3C0F3B25DF0132
:104A7000382FC5101BD4BD1F796D6D10D5DFA70D64
:104A8000AC74DD07C2C75A1B74F95F14CB02EF1B6D
:104A9000F3FDA81B14417415D47DF91A3B847514D9
:104AA0000000803F0000000000C488BF0000A3BCDD
:104AB0000060753F0000C4BD002856BF00806F3EF7
:104AC000003C86BF0000453E00D4A03F008084BD6E
:104AD000003494BF0040DA3D00A87E3F001096BE2F
:104AE0000040B5BE00A87B3F0040F83E00A894BF40
:104AF0000080D1BE00F48B3F00C0323E001C82BF5C
:104B0000002003BE00E88ABF00C0893D0088AE3F98
:104B100000E00ABE00D8A0BF0060873E00AC8E3F18
:104B200000000000D5080000A40800009300000069
:104B300025FE7F00460600000E05000071FD7F0087
:104B400085F37F000EFD7F0044FB7F00C7F37F00ED
:104B500004F67F004CFF7F0087FE7F00D3F57F00C7
:104B60000900030003000300040004000500050021
:104B7000060007000700080009000A000B000C00EF
:104B80000D000E000F001100120014001500170098
:104B900019001B001D001F00210023002600290012
:104BA0002B002E003100350038003B003F00430051
:104BB00047004B005000550059005F006400690039
:104BC0006F0075007B0082008900900097009F00B5
:104BD000A700AF00B700C000C900D300DD00E700A8
:104BE000F200FC00080113011F012C0139014601EC
:104BF0005401620170017F018F019F01AF01C0016B
:104C0000D101E301F50108021B022F024402580200
:104C10006E0284029A02B202C902E202FA0214038C
:104C20002E03480364037F039C03B903D703F503F2
:104C300014043404540475049604B804DB04FF041B
:104C4000230548056D059305BA05E1050A063206F8
:104C50005C068606B106DC06080735076207900782
:104C6000BF07EE071E084F088008B208E4081809BD
:104C70004B098009B409EA09200A570A8E0AC50AB5
:104C8000FE0A360B700BA90BE40B1E0C5A0C950C8C
:104C9000D10C0E0D4B0D880DC60D040E430E820E69
:104CA000C10E000F400F800FC00F01104110821085
:104CB000C310051146118811C9110B124D128E1225
:104CC000D012121354139513D71319145A149B149A
:104CD000DD141E155E159F15DF151F165F169E1637
:104CE000DD161C175A179817D51712184F188B185E
:104CF000C61801193B197519AE19E6191E1A551A6D
:104D00008B1AC11AF51A291B5D1B8F1BC01BF11BC7
:104D1000211C501C7D1CAA1CD61C011D2B1D541DC2
:104D20007C1DA31DC91DED1D111E331E551E751EB4
:104D3000941EB21ECE1EE91E041F1D1F341F4B1FE2
:104D4000601F741F861F981FA81FB61FC41FD01F87
:104D5000DA1FE41FEC1FF31FF81FFC1FFF1FFF1FCC
:104D6000FF1FFF1FFC1FF81FF31FEC1FE41FDA1FBC
:104D7000D01FC41FB61FA81F981F861F741F601F57
:104D80004B1F341F1D1F041FE91ECE1EB21E941E92
:104D9000751E551E331E111EED1DC91DA31D7C1D44
:104DA000541D2B1D011DD61CAA1C7D1C501C211C32
:104DB000F11BC01B8F1B5D1B291BF51AC11A8B1A17
:104DC000551A1E1AE619AE1975193B190119C6189C
:104DD0008B184F181218D51798175A171C17DD166D
:104DE0009E165F161F16DF159F155E151E15DD1426
:104DF0009B145A141914D713951354131213D01269
:104E00008E124D120B12C911881146110511C310D3
:104E1000821041100110C00F800F400F000FC10E13
:104E2000820E430E040EC60D880D4B0D0E0DD10CD7
:104E3000950C5A0C1E0CE40BA90B700B360BFE0ADA
:104E4000C50A8E0A570A200AEA09B40980094B09E3
:104E50001809E408B20880084F081E08EE07BF07CB
:104E60009007620735070807DC06B10686065C0670
:104E700032060A06E105BA0593056D0548052305C6
:104E8000FF04DB04B80496047504540434041404C9
:104E9000F503D703B9039C037F03640348032E0380
:104EA0001403FA02E202C902B2029A0284026E02FA
:104EB000580244022F021B020802F501E301D1014E
:104EC000C001AF019F018F017F0170016201540198
:104ED000460139012C011F0113010801FC00F200F9
:104EE000E700DD00D300C900C000B700AF00A70095
:104EF0009F0097009000890082007B0075006F0082
:104F0000690064005F005900550050004B004700E5
:104F100043003F003B003800350031002E002B00DD
:104F200029002600230021001F001D001B0019007E
:104F3000170015001400120011000F000E000D00E4
:104F40000C000B000A00090008000700070006001B
:104F5000050005000400040003000300030009002D
:104F6000010005000B0014001F002C003C004E0047
:104F700063007A009300AF00CD00EE001001350110
:104F80005D018601B201E001100242027702AD022A
:104F9000E60220035C039B03DB031D046104A704FA
:104FA000EE0437058205CF051D066C06BD060F070A
:104FB0006307B8070E086608BF0818097309CF0908
:104FC0002C0A8A0AE80A480BA80B080C6A0CCB0CBE
:104FD0002E0D910DF40D570EBB0E1F0F830FE70F13
:104FE0004B10AF1013117711DB113E12A1120313F6
:104FF0006613C71328148914E8144715A51503165A
:105000005F16BA1615176E17C6171D187318C7182E
:105010001A196C19BC190B1A581AA31AED1A361B57
:105020007C1BC11B041C451C851CC21CFD1C371DA0
:105030006E1DA41DD71D081E371E641E8F1EB71EB1
:10504000DD1E011F231F421F5F1F7A1F921FA81F13
:10505000BB1FCC1FDB1FE71FF11FF81FFD1FFF1F2A
:10506000FF1FFD1FF81FF11FE71FDB1FCC1FBB1F1A
:10507000A81F921F7A1F5F1F421F231F011FDD1EE3
:10508000B71E8F1E641E371E081ED71DA41D6E1D61
:10509000371DFD1CC21C851C451C041CC11B7C1B30
:1050A000361BED1AA31A581A0B1ABC196C191A19C7
:1050B000C71873181D18C6176E171517BA165F167E
:1050C0000316A5154715E81489142814C713661389
:1050D0000313A1123E12DB1177111311AF104B1005
:1050E000E70F830F1F0FBB0E570EF40D910D2E0D02
:1050F000CB0C6A0C080CA80B480BE80A8A0A2C0A8D
:10510000CF0973091809BF0866080E08B8076307B6
:105110000F07BD066C061D06CF0582053705EE0498
:10512000A70461041D04DB039B035C032003E60268
:10513000AD02770242021002E001B20186015D0178
:1051400035011001EE00CD00AF0093007A0063003E
:105150004E003C002C001F0014000B000500010055
:105160000000803F0000000000A07A3F00002EBE3B
:1051700000F86A3F0020A8BE0048523F0040EEBE43
:105180000070323F007012BF00F80D3F009824BF3E
:105190000030CF3E00D02CBF0020843E00482BBF03
:1051A0000000003E00E020BF0000603C00300FBF68
:1051B00000C08EBD00B0F0BE0040FABD0070BDBEA4
:1051C000000013BE008089BE00800BBE00C032BE4E
:1051D0000080D7BD0040C3BD00806ABD008014BD03
:1051E00000000000000000000080703D0000583CFE
:1051F00000C0E43D0000B43B00001D3E00009BBC2D
:1052000000C0373E00005FBD00E0403E0040C2BD30
:1052100000C0383E000009BE00C0213E00002ABE8A
:105220000000003E00A03FBE00C0B03D006047BE91
:105230000000413D00A040BE00004C3C00802CBE60
:10524000000060BC00000EBE0000E8BC00C0D1BD84
:105250000000F9BC00C083BD0000A7BC0000EDBC8D
:1052600000000000000000000000E23C00009F3C45
:1052700000006F3D0000E23C0000B53D0000C83C6E
:105280000000E93D0000383C00A0063E00001EBCC6
:1052900000E00E3E00000FBD00600C3E000079BD36
:1052A0000000003E0000ABBD0040D73D0000CDBD7A
:1052B0000040A43D0080DDBD00005C3D0080DABD03
:1052C0000000EE3C0080C4BD00001C3C00009EBD00
:1052D000000028BB008058BD0000C0BB0000D5BC4A
:1052E00000000000000000000000663C0000B53C2B
:1052F00000000C3D00001A3D00006C3D0080383D70
:1053000000C0A63D0080323D00C0D13D00800A3D76
:105310000040F13D00008F3C00A0003E000048BB73
:105320000000003E0000CCBC00C0ED3D008037BD59
:105330000000CD3D000076BD0080A23D00008CBD88
:105340000000673D00808CBD00800C3D000078BDF2
:105350000000843C008038BD0000883B0000C5BCD4
:1053600000000000000000000000883B0000C53C79
:105370000000843C0080383D00800C3D0000783DFA
:105380000000673D00808C3D0080A23D00008C3D08
:105390000000CD3D0000763D00C0ED3D0080373D72
:1053A0000000003E0000CC3C00A0003E0000483B56
:1053B0000040F13D00008FBC00C0D13D00800ABD1F
:1053C00000C0A63D008032BD00006C3D008038BDAD
:1053D00000000C3D00001ABD0000663C0000B5BC9A
:1053E00000000000000000000000C0BB0000D53C31
:1053F000000028BB0080583D00001C3C00009E3D82
:105400000000EE3C0080C43D00005C3D0080DA3DC1
:105410000040A43D0080DD3D0040D73D0000CD3D73
:105420000000003E0000AB3D00600C3E0000793DF6
:1054300000E00E3E00000F3D00A0063E00001E3CB6
:105440000000E93D000038BC0000B53D0000C8BCCC
:1054500000006F3D0000E2BC0000E23C00009FBC89
:1054600000000000000000000000A7BC0000ED3CB0
:105470000000F9BC00C0833D0000E8BC00C0D13D85
:10548000000060BC00000E3E00004C3C00802C3E42
:105490000000413D00A0403E00C0B03D0060473EDE
:1054A0000000003E00A03F3E00C0213E00002A3E1A
:1054B00000C0383E0000093E00E0403E0040C23DD2
:1054C00000C0373E00005F3D00001D3E00009B3CD9
:1054D00000C0E43D0000B4BB0080703D000058BC3B
:1054E000000000000000000000806ABD0080143D44
:1054F0000080D7BD0040C33D00800BBE00C0323EDF
:10550000000013BE0080893E0040FABD0070BD3E21
:1055100000C08EBD00B0F03E0000603C00300F3F88
:105520000000003E00E0203F0020843E00482B3F6A
:105530000030CF3E00D02C3F00F80D3F0098243FB4
:105540000070323F0070123F0048523F0040EE3E74
:1055500000F86A3F0020A83E00A07A3F00002E3EDF
:105560000000803F000000000000803F00000000BD
:105570000000803F000000000000803F00000000AD
:105580000000803F000000000000803F000000009D
:105590000000803F000000000000803F000000008D
:1055A0000000803F000000000000803F000000007D
:1055B0000000803F000000000000803F000000006D
:1055C0000000803F000000000000803F000000005D
:1055D0000000803F000000000000803F000000004D
:1055E0000000803F000000000000803F000000003D
:1055F0000000803F000000000000803F000000002D
:105600000000803F000000000000803F000000001C
:105610000000803F000000000000803F000000000C
:105620000000803F000000000000803F00000000FC
:105630000000803F000000000000803F00000000EC
:105640000000803F000000000000803F00000000DC
:105650000000803F000000000000803F00000000CC
:105660000000803F000000000000803F00000000BC
:105670000000803F000000000000803F00000000AC
:105680000000803F000000000000803F000000009C
:105690000000803F000000000000803F000000008C
:1056A0000000803F000000000000803F000000007C
:1056B0000000803F000000000000803F000000006C
:1056C0000000803F000000000000803F000000005C
:1056D0000000803F000000000000803F000000004C
:1056E0000000803F000000000000803F000000003C
:1056F0000000803F000000000000803F000000002C
:105700000000803F000000000000803F000000001B
:105710000000803F000000000000803F000000000B
:105720000000803F000000000000803F00000000FB
:105730000000803F000000000000803F00000000EB
:105740000000803F000000000000803F00000000DB
:105750000000803F000000000000803F00000000CB
:105760000000803F000000000000803F00000000BB
:105770000000803F000000000000803F00000000AB
:105780000000803F000000000000803F000000009B
:105790000000803F000000000000803F000000008B
:1057A0000000803F000000000000803F000000007B
:1057B0000000803F000000000000803F000000006B
:1057C0000000803F000000000000803F000000005B
:1057D0000000803F000000000000803F000000004B
:1057E0000000803F000000000000803F000000003B
:1057F0000000803F000000000000803F000000002B
:105800000000803F000000000000803F000000001A
:105810000000803F000000000000803F000000000A
:105820000000803F000000000000803F00000000FA
:105830000000803F000000000000803F00000000EA
:105840000000803F000000000000803F00000000DA
:105850000000803F000000000000803F00000000CA
:105860000000803F000000000000803F00000000BA
:105870000000803F000000000000803F00000000AA
:105880000000803F000000000000803F000000009A
:105890000000803F000000000000803F000000008A
:1058A0000000803F000000000000803F000000007A
:1058B0000000803F000000000000803F000000006A
:1058C0000000803F000000000000803F000000005A
:1058D0000000803F000000000000803F000000004A
:1058E0000000803F000000000000803F000000003A
:1058F0000000803F000000000000803F000000002A
:105900000000803F000000000000803F0000000019
:105910000000803F000000000000803F0000000009
:105920000000803F000000000000803F00000000F9
:105930000000803F000000000000803F00000000E9
:105940000000803F000000000000803F00000000D9
:105950000000803F000000000000803F00000000C9
:105960000000803F0000000000B07F3F000049BD04
:1059700000C87E3F00C0C8BD00387D3F004016BE55
:1059800000187B3F00C047BE0050783F00C078BE83
:1059900000F8743F00A094BE0008713F0080ACBEC8
:1059A00000806C3F00F0C3BE0068673F00F0DABEC5
:1059B00000C8613F0060F1BE00985B3F00A003BFDC
:1059C00000D8543F00380EBF00A04D3F008018BFE4
:1059D00000E8453F006822BF00B03D3F00E82BBF14
:1059E0000008353F000835BF00E82B3F00B03DBF41
:1059F0000068223F00E845BF0080183F00A04DBF6F
:105A000000380E3F00D854BF00A0033F00985BBF92
:105A10000060F13E00C861BF00F0DA3E006867BF79
:105A200000F0C33E00806CBF0080AC3E000871BF38
:105A300000A0943E00F874BF00C0783E005078BFCC
:105A400000C0473E00187BBF0040163E00387DBFB7
:105A500000C0C83D00C87EBF0000493D00B07FBF08
:105A600000000000000080BF000049BD00B07FBF03
:105A700000C0C8BD00C87EBF004016BE00387DBF54
:105A800000C047BE00187BBF00C078BE005078BF82
:105A900000A094BE00F874BF0080ACBE000871BFC7
:105AA00000F0C3BE00806CBF00F0DABE006867BFC4
:105AB0000060F1BE00C861BF00A003BF00985BBFDB
:105AC00000380EBF00D854BF008018BF00A04DBFE3
:105AD000006822BF00E845BF00E82BBF00B03DBF13
