:020000040000FA
:10000000E8180020B5010000611F0000BF010000DA
:10001000C1010000C3010000C50100000000000094
:10002000000000000000000000000000F9000000D7
:10003000C9010000000000004D010000014A00005D
:10004000CF010000CF010000CF010000CF01000070
:10005000CF010000CF010000CF010000F14D0000F2
:10006000CF010000CF010000CF010000CF01000050
:10007000CF010000CF010000894B0000CF0100003C
:10008000CF010000CF010000CF0100005D13000090
:1000900019090000CF010000CF010000CF010000CE
:1000A000CF010000CF010000CF010000CF01000010
:1000B000CF010000CF010000CF010000CF01000000
:1000C000CF010000CF010000CF010000CF010000F0
:1000D000CF010000CF010000CF010000CF010000E0
:1000E000DFF810D000F0FAF8004800479D630000E8
:1000F000AFF30080E81800202B4B19680868B0E8BF
:10010000F04F80F30988BFF36F8F4FF0000080F34A
:10011000118870470000000006480068006880F3FE
:10012000088862B661B6BFF34F8FBFF36F8F00DFF1
:1001300000BF00BF08ED00E0DFF80C00016841F4EB
:1001400070010160704700BF88ED00E0EFF30980A7
:10015000BFF36F8F144B1A681EF0100F08BF20ED0D
:10016000108A20E9F04F106008B44FF0A00072B67A
:1001700080F31188BFF34F8FBFF36F8F62B607F024
:10018000E9FA4FF0000080F3118808BC196808688C
:10019000B0E8F04F1EF0100F08BFB0EC108A80F3EB
:1001A0000988BFF36F8F704734000020EFF305809C
:1001B000704700000648804706480047FEE7FEE714
:1001C000FEE7FEE7FEE7FEE7FEE7FEE7FEE7FEE707
:1001D000514B0000E10000002DE9F05F05460020D2
:1001E00092469B4688460646814640241BE02846A8
:1001F00041464746224600F060F853465A46C01A28
:10020000914110D311461846224600F016F82D1AD7
:1002100067EB01084F4622460120002100F00DF84F
:1002200017EB00094E41201EA4F10104DFDC484613
:1002300031462A464346BDE8F09F202A04DB203A97
:1002400000FA02F1002070479140C2F1200320FA29
:1002500003F319439040704740EA01039B0703D022
:1002600009E008C9121F08C0042AFAD203E011F8F5
:10027000013B00F8013B521EF9D27047D2B201E0B7
:1002800000F8012B491EFBD270470022F6E710B59B
:1002900013460A4604461946FFF7F0FF204610BDF4
:1002A00030B504460020034600E05B1C934203D2B5
:1002B000E05CCD5C401BF8D030BD202A04DB203A46
:1002C00021FA02F00021704721FA02F3D040C2F176
:1002D000200291400843194670470000064C074D24
:1002E00006E0E06840F0010394E807009847103406
:1002F000AC42F6D3FFF7F8FECC910000EC91000081
:1003000070B58C1810F8015B15F0070301D110F8D7
:10031000013B2A1106D110F8012B03E010F8016B04
:1003200001F8016B5B1EF9D12B0705D40023521E87
:100330000DD401F8013BFAE710F8013BCB1A921CEF
:1003400003E013F8015B01F8015B521EF9D5A142ED
:10035000D8D3002070BD000010B502F0B9F80248F3
:1003600004F032F810BD0000E800002078B5034624
:100370000C4615460020009000220021284605EB7F
:10038000D0767610A5EB4606002E49D013F8010B67
:100390008DF800009DF80000302808DB9DF8000073
:1003A000392804DC9DF800003038207001E001207D
:1003B00078BD00222DE013F8010B8DF8000013F832
:1003C000010B8DF80100002111E01DF8010030281B
:1003D0000ADB1DF80100392806DC1DF80100303861
:1003E000C0B20DF8010001E00120E1E7491C02293B
:1003F000EBDB9DF8000000EB80004006060E501C71
:100400002654205C9DF801603044C6B2501C26542E
:10041000521C681E00EBD076B2EB660FCBDB31E0EE
:1004200000222AE013F8010B8DF8000013F8010BED
:100430008DF80100002111E01DF8010030280ADBD1
:100440001DF80100392806DC1DF801003038C0B263
:100450000DF8010001E00120AAE7491C0229EBDBAD
:100460009DF8000000EB80004006000EA054A05C48
:100470009DF801603044A054521C05EBD576B2EBD8
:10048000660FCFDB002093E710B50948006901280B
:1004900003D101F009FA044600E000BF00BF34B9FF
:1004A00004A004F0ADFE04F095FE00BFFEE710BD11
:1004B000B008002046554E43204572726F720A0004
:1004C00030B501784A07002341780C0743EA03015D
:1004D0002243837842EA036283881D030B462A4342
:1004E000C1880A43047A0021090641EA142125063D
:1004F000144643EA05020C43437A0021090541EA08
:10050000133542EA035144EA0502847A00231B03AF
:1005100043EA145541EA043342EA0501C47A002251
:10052000120242EA146225020C4643EA0501224304
:10053000047B00231B0143EA14732501144641EA9E
:1005400005022343847B0021890041EA947142EA39
:10055000840443EA0102C17B44EA010301490B60C0
:100560004A6030BD0001C03110B500202F4908702D
:10057000487088702E48808988802D48C089C8803E
:1005800003200872002048722A48807E8872294819
:10059000407EC8722748007E08730846C07A097BEF
:1005A000084422494873234890F821008873214861
:1005B00090F82000C8730846FFF782FF1C48C08EE1
:1005C000002104220B46114318431B4A116050605E
:1005D0001748B0F8A4000021154AD2F848210B466C
:1005E00011431843144A0832116050601048C08902
:1005F0000E49497B411A0E48B0F8A420D0F84801B2
:1006000001FB020000210A4AD2F848210B4611439F
:100610001843094A1032116050600548D0F858015B
:100620000021054A18321060516010BD48050020B5
:1006300098060020B00800200801C0312DE9F04FD5
:1006400089B0904840898F49897E4843009000983E
:10065000202807D0402806D0802831D0B0F5807FF0
:1006600000D17BE00AE1002425E00020864A02EB6D
:10067000C40210605060834618E0012000FA04F5BF
:10068000E81780498A7E02FB0BF201902846019907
:10069000FFF7D3FD7C4A02EBC4030CCB1043194394
:1006A000794A02EBC40203C20BF1010B7548408981
:1006B0005845E2D8641C7348807EA042D5D8DDE05E
:1006C000002446E00021704A02EBC4021160516030
:1006D00000226D48503000EBC400026042608B463F
:1006E00031E0012000FA04F6F01766498A7E02FB29
:1006F0000BF2039030460399FFF79FFD624A02EB2D
:10070000C4030CCB104319435F4A02EBC40203C27B
:10071000012000FA04F7F8175A498A7E02FB0BF20F
:10072000029038460299FFF788FD574A503202EB93
:10073000C4030CCB10431943534A503202EBC4029A
:1007400003C20BF1010B4F48B0F8B6005845C8D8AA
:10075000641C4C48807EA042B4D88FE0002487E01F
:100760000021494A02EBC402116051600020464951
:10077000503101EBC4010860486000214248A030BC
:1007800000EBC4000160416000223F48F03000EB04
:10079000C400026042608B4664E0012000FA04F865
:1007A0004FEAE87037498A7E02FB0BF20890404618
:1007B0000899FFF742FD344A02EBC4030CCB104307
:1007C0001943314A02EBC40203C2012000FA04F9C2
:1007D0004FEAE9702B498A7E02FB0BF207904846EC
:1007E0000799FFF72AFD284A503202EBC4030CCBCD
:1007F00010431943244A503202EBC40203C20120C1
:1008000000FA04FA4FEAEA701E498A7E02FB0BF2F4
:10081000069050460699FFF710FD1B4AA03202EBE6
:10082000C4030CCB10431943174AA03202EBC40295
:1008300003C20120A040C117124A927E02FB0BF2B4
:10084000CDE90410FFF7F9FC0F4AF03202EBC403C4
:100850000CCB104319430C4AF03202EBC40203C222
:100860000BF1010B0748B0F8B600584595D8641C49
:100870000448807EA0423FF673AF00BF00BF09B0BE
:10088000BDE8F08F98060020580500204FF0FF319A
:10089000204A116051601F4A0832116051600846B9
:1008A0001C4A1032106050601A4A183210605060B2
:1008B000184A203210605060164A28321160516088
:1008C000144A303210605060124A38321060506062
:1008D000104A4032106050600E4A4832106050603A
:1008E0000C4A5032116051600A4A5832116051600E
:1008F000084A603211605160064A683210605060E8
:10090000044A703211605160024A783211605160BD
:10091000704700002002C03110B53B480168D1F893
:100920002003D1F8241302231840002148404940F5
:1009300008431CD002210020334A1268C2F8201359
:10094000C2F82403314948603148007850B9314831
:1009500001684068012319432E4A1160506001204C
:100960002B4908702C480068401C2B490860264819
:100970000168D1F82003D1F824131022104000217F
:100980004840494008430AD0102100201E4A1268FE
:10099000C2F82013C2F8240301201C4948601A48F9
:1009A0000068D0F82013D0F824231C4800680140C8
:1009B000002251405240114324D013480168D1F81D
:1009C0002003D1F82413164908600F480068D0F8B6
:1009D0002013D0F824030822114000204140404059
:1009E000014304D001200F49087003F0E8FC0B48D4
:1009F00000680021044A1268C2F82003C2F82413D8
:100A000000F0F4F810BD0000C000002000C002405B
:100A1000E10000201004C031E4000020D8000020D4
:100A2000DC000020E000002070B5417C0024027C46
:100A3000951844EB040322461C4641EA050342EAAA
:100A40000401C47B0022D20042EA547543EAC40286
:100A50002943837B0024240144EA137442EA0312ED
:100A60002143447B00231B0243EA146325020C4606
:100A700042EA05012343047B0022120342EA145296
:100A800041EA0431134344890022120442EA144229
:100A900025041C4641EA05032243047A0021890605
:100AA00041EA941143EA84631143C4790022D206D7
:100AB00042EA541543EAC46241EA050384790021FD
:100AC000090741EA141542EA047143EA0502447930
:100AD00000239B0743EA940341EA84711A43037994
:100AE0001C020B4611461A46214343881C03134639
:100AF0000A4619462243437842EA0362037842EAEF
:100B000003724FF0475319605A60C17E0024837E00
:100B1000220142EA137241EA031344EA0201447ECD
:100B20000022120242EA146225020C4643EA050141
:100B300044EA0203047E0022120342EA145241EA0C
:100B400004311A43C47D00231B0443EA14432504E3
:100B5000144641EA050244EA0301847D00231B0593
:100B600043EA143325050C4642EA050144EA030230
:100B7000447D00231B0643EA142341EA0461134326
:100B8000047D0022120742EA141225071C4641EA9E
:100B900005032243C17C0A43817C42EA01114FF0E4
:100BA00047529360D1600023D0E907121A430B43E8
:100BB0004FF047510A614B6100224FF04753416AA1
:100BC0009961DA6170BD00000DE00748007810B14E
:100BD000012806D102E003F085FE03E0FFF754FC94
:100BE00000E000BF00BFF0E7B008002008B501201A
:100BF000009069460748006806F082FC009838B10A
:100C00004FF0805004490860BFF34F8FBFF36F8FE0
:100C100008BD00003401002004ED00E030B50346BB
:100C2000002004E031F8104023F81040401C9042AE
:100C3000F8D330BD30B50346002004E051F8204021
:100C400043F82040401C9042F8D330BD01460829AB
:100C500006D00A2906D00C2906D00E2908D105E0B5
:100C6000002005E0012003E0022001E0032000BF96
:100C700000BF70470146082906D00A2906D00C2972
:100C800005D00E2906D103E0002003E000BF00BF1D
:100C9000012000BF00BF7047014680292DD00EDC27
:100CA000102924D006DC02291BD004291BD00829D6
:100CB0002FD11AE020291CD040292AD11BE0B1F500
:100CC000806F20D006DCB1F5807F18D0B1F5007FB1
:100CD0001FD116E0B1F5006F17D0B1F5805F18D1C4
:100CE00015E0012015E0022013E0032011E00420AC
:100CF0000FE005200DE006200BE0072009E00820AA
:100D000007E0092005E00A2003E00B2001E00C20A9
:100D100000BF00BF7047000070B504460D460020BC
:100D20000F4908600DE00E480068B0F57A7F08D9D9
:100D30000C4801680CA004F063FA04F04BFA00BF01
:100D4000FEE70F49086849682040294000235840C1
:100D500059400843E7D00A480460456070BD000070
:100D600058010020D800002042425F4552523A7498
:100D7000696D656F75743D253038580A00000000B4
:100D80002003C03110B52948406A20F002002749ED
:100D900048620846C06940F48020C8610846C069BE
:100DA00040F40020C861012000F028F94FF0A04075
:100DB000006840F400404FF0A04108601B48406AC2
:100DC00040F00200194948620846C06920F400104A
:100DD000C8610846C06940F48000C86114480068D2
:100DE00020F0FF00401C12490860012048600022EA
:100DF0001621104600F004FD00221821104600F0D4
:100E0000FFFC82221621F02000F0FAFC0122FF21D3
:100E1000084800F061FD40221821FE2000F0F0FC9F
:100E2000E0221821FD2000F0EBFC10BD000008407E
:100E300000C002408000015010B501200449086044
:100E400000F0DCF8012002499839086010BD00006C
:100E5000C004015010B54FF0A040006840F0007091
:100E60004FF0A0410860012211460D4800F0E0FD5E
:100E7000012291020A48C03800F0DAFD0122114631
:100E80000748C03800F0D4FD002006490860012062
:100E90000449983908600349C039086010BD000052
:100EA000C0000150C004015010B54FF0A0400068D0
:100EB00040F080004FF0A04108601F4880684FF666
:100EC000FF7108431C4988604FF400511B4800F033
:100ED00069FD4FF48041194800F064FD4FF4004172
:100EE000164800F05FFD01220D21144801F00AFBB5
:100EF00001220E21114801F005FB01220F210F48AC
:100F000001F000FB0E480F4908600F48096888602F
:100F100000200C49486000210A4881600121C1601D
:100F2000002101610121416104200649086208464F
:100F300003F0CAFF10BD000000000940000001508E
:100F400000C00040A8020020A51A005A10B54FF0BA
:100F5000A040006840F480704FF0A041086008464F
:100F6000006840F001000860012202211E4801F0E3
:100F7000C9FA012203211C4801F0C4FA1B481C498C
:100F8000086001211A48816100210161012141614C
:100F900018481749486000211548816004F06CF832
:100FA000072000280DDB00BF00BF00F01F02012159
:100FB00091404209920002F1E022C2F8001100BF04
:100FC00000BF00BF1F200A4909684861084800683F
:100FD000C06820F0020006490968C8604821064838
:100FE000FFF753F910BD0000400001500000014020
:100FF0003803002080841E00F002002070B50446F3
:10100000064800680649B0FBF1F6002503E03046CB
:1010100000F008F86D1CA542F9D370BD0400002053
:1010200030690200002105E0002200E0521C642A21
:10103000FCD3491C8142F7D3704700001CB5064819
:10104000032100234FF48062CDE9001003A105487D
:1010500006F034FE1CBD00003401002042425F5403
:1010600061736B00C90B00001CB505480421002307
:101070000A02CDE9001003A1054806F01FFE1CBDC1
:101080003C0100205072696E74665F5461736B009E
:1010900009280000F0B505460B4617460026002437
:1010A000284600F07BFA044614B10BB1082D02DB90
:1010B00040F20140F0BD186820605868A060587C7C
:1010C0000E2101EA4000197C702202EA0111084356
:1010D000D97B4FF4C07202EAC1110843997B920098
:1010E00002EA41210843597B4FF4605202EAC121D0
:1010F0000843197BD20002EA8131084393F83C107F
:10110000920102EA01510843D97A4FF0C07202EA13
:10111000C1510843997A920002EA416140EA01060E
:1011200093F83F0000F001003043A0610026188FC3
:10113000C0F30B06E66193F84C00E02101EA401091
:1011400093F828104FF0804202EA8171084393F827
:101150002910520002EAC171084393F82C10120DB5
:1011600002EAC121084393F82D10521002EA8121AE
:10117000084393F82A10520202EAC141084393F847
:101180002B10521002EA81410843206493F8250095
:101190004FF4F06101EAC01093F824104FF4F042CC
:1011A00002EAC12108436064002083E70146082960
:1011B00002DB40F2014070474FF48070884001220A
:1011C0008A401043034A12681043034AC2F8A0033E
:1011D0000020F0E7A00306500000065010B50446BA
:1011E0000023204600F0DAF903462BB1986920F07D
:1011F00001009861002010BD40F20140FBE70000B3
:10120000FF20074908600749C1F84003044908392D
:1012100008600349103908600149203908607047A7
:1012200058030650000006500246082A02DB40F22E
:1012300001407047002940D0012904D1012090408D
:101240001F4B186039E0022905D1012090401C4B4A
:101250000833186031E0042905D101209040184B73
:101260001033186029E0082905D101209040144B63
:101270001833186021E0102905D101209040104B4F
:101280002033186019E01F2917D1012090400C4B22
:1012900020331860012090400A4BC3F8400301201E
:1012A0009040074B1833186001209040054BC3F85D
:1012B000480301209040024B18600020B9E700006D
:1012C000380306500000065010B54FF0A0400068EB
:1012D00040F000504FF0A041086000F02DF8FFF7FB
:1012E0008FFF00F0D3F813200521002804DB4A0704
:1012F000130E0F4A135406E04A07140E0D4A00F06D
:101300000F031B1FD45400BF132000280DDB00BFA8
:1013100000BF00F01F02012191404209920002F13A
:10132000E022C2F8001100BF00BF00BF10BD0000E6
:1013300000E400E018ED00E00020034908600349E4
:10134000C1F8A00370470000980306500000065043
:1013500001200149086070479803065070B50025C8
:1013600046480068464909680843444908600846F9
:1013700040684449D1F8F0120843404948600846A3
:1013800080684049D1F8001308433C49886008460A
:10139000C0683C49D1F8F81208433849C86008468B
:1013A00000693849D1F8E812084334490861084611
:1013B00040693449D1F860130843304948613048E6
:1013C00000683049D1F8F01208432E49D1F80013D3
:1013D00008432C49D1F8F8120843294920390968F3
:1013E00040EA0105002445E00120A04028400028F3
:1013F0003ED0254850F8240020B1234951F824005C
:10140000804739E01E4800680121A140084018B11A
:1014100010212046FFF708FF1948183800680121FD
:10142000A140084018B102212046FFF7FDFE1448F4
:10143000083800680121A140084018B10821204661
:10144000FFF7F2FE0E48103800680121A140084065
:1014500018B104212046FFF7E7FE0948203800684C
:101460000121A140084018B101212046FFF7DCFE10
:10147000601CC4B2082CB7DB00BF70BD6001002047
:1014800008030650000006507003002000B5FFF767
:10149000B7FE0020FFF7A2FE0120FFF79FFE02200B
:1014A000FFF79CFE0320FFF799FE0420FFF796FE4E
:1014B0000520FFF793FE0620FFF790FE0720FFF7B9
:1014C0008DFEFFF739FF002000BD00000246082A0C
:1014D00002DB40F201407047002959D0012906D1B2
:1014E0000802904040F0FF002A4B186050E00229AB
:1014F00007D1C801904040F0FF00264B0833186028
:1015000046E0042907D18801904040F0FF00214BBC
:10151000103318603CE0082907D14801904040F0A2
:10152000FF001C4B1833186032E0102907D1080166
:10153000904040F0FF00174B2033186028E01F292F
:1015400026D14FF48070904040F0FF00114B2033C3
:1015500018604FF48070904040F0FF000E4BC3F8CD
:1015600018034FF48070904040F0FF00094B18338F
:1015700018604FF48070904040F0FF00064BC3F8B5
:1015800020034FF48070904040F0FF00014B186042
:101590000020A0E71003065000000650014600207E
:1015A00009B911481FE0012902D10F4858301AE04B
:1015B000022902D10C48B03015E0032901D10B48B3
:1015C00011E0042902D1094858300CE0052902D164
:1015D0000648B03007E0062901D1054803E0072995
:1015E00001D10348583070470000065008010650EA
:1015F000100206507047000001460022B1F5802F0E
:1016000007D3B1F5002F02D3B1F5042F01D30C4855
:1016100070470C48006C012801D10846F8E7B1F585
:10162000802F04D20748406C01EB403201E00448AF
:10163000EEE7B2F5802F01D30148E9E71046E7E76E
:1016400001430800000007502DE9F0470446884692
:10165000914600260025002772B64646CA46254612
:10166000C4F30C07B4F5802F08D3B4F5002F02D3D0
:10167000B4F5042F02D31148BDE8F08719E05246B3
:101680003146284600F01CF810B10C48801CF3E7E6
:101690006FF30C05B819B0F5005F06D9C7F5005017
:1016A000361AC7F50050824400E00026002705F5F1
:1016B0000055002EE3D162B60020DDE701430800AB
:1016C0002DE9F04F04460E4617464FF0000BD84662
:1016D0000023002599469A462046FFF78DFF824653
:1016E0004048824501D1BDE8F08F4FEA543B4FEAB4
:1016F0004B3BC4F30C08002306E05BF823003A4997
:10170000096841F823005B1CB3F5006FF5D3B146BF
:1017100008EB0600B0F5005F01D9C8F500590023B9
:1017200006E0F85C03EB0801304A126850545B1C79
:101730004B45F6D32E482F4908622F4808622F48A0
:1017400008624FEA5A304FEA40304865A520C86425
:101750004FF0FF30886500BF26488030006800F0F9
:1017600001000028F8D0002529E000230CE08020AB
:1017700000FB05301C49096851F820001D4A02EBA6
:101780008301C1F800025B1C802BF0D3194803656C
:10179000D2201849C8644FEA5A314FEA413101EB6F
:1017A0004520144948654FF0FF30886500BF114857
:1017B0008030006800F001000028F8D06D1C102D6A
:1017C000D3D300200B490862002307E0F85CE15CFA
:1017D000884202D00348801C85E75B1C4B45F5D34B
:1017E000002080E701430800300000202C0000208A
:1017F0003412CBED00000750785687A9BC9A436598
:1018000030B501F03F03FF240C4DAC602C46E36083
:10181000A06000BF094C646904F00104002CF9D1F8
:10182000064CE26000BF054C646904F00304022C1E
:10183000F9D1FF24014DAC6030BD000000C0024072
:1018400000BF00BF00BFBFF34F8F00BF00BF00BF8E
:1018500000BF00BF00BFBFF36F8F00BF00BF00BF5E
:101860001048006840F470000E49086000BF00BFD7
:1018700000BFBFF34F8F00BF00BF00BF00BF00BF5E
:1018800000BFBFF36F8F00BF00BF00BF08460068F6
:1018900000F47000B0F5700F01D1002070470120F6
:1018A000FCE7000088ED00E010B505F0D1FA012852
:1018B0000BD105F00BFD0749D1F818014FF4801149
:1018C00000F09AFB05F016FD01E0002010BD01209C
:1018D000FCE700009806002010B503462F4883421D
:1018E00011D1012A05D12E48006808432C4C2060F4
:1018F00052E02AB92A4800688843294C20604BE00E
:1019000040F2015010BD25484030834213D1012AD6
:1019100006D12348006840EA0140214C20603BE0AA
:1019200032B91F48006820EA01401D4C206033E0B6
:1019300040F20150E6E719488030834211D1012A74
:1019400005D11748006C0843154C206424E02AB9DF
:101950001348006C8843124C20641DE040F2015093
:10196000D0E70E48C030834213D1012A06D10C487B
:10197000006C40EA01400A4C20640DE032B908488E
:10198000006C20EA0140064C206405E040F2015062
:10199000B8E740F20150B5E70020B3E7000001507E
:1019A0000000094002462048824209D11F48C06811
:1019B00008431E4BD860184680680843986030E0A2
:1019C0001948403082420BD11848C06840EA0140B3
:1019D000164BD8601846806840EA0140986020E0C5
:1019E00011488030824209D11048C06C08430F4B27
:1019F000D8641846806C0843986412E00A48C030E6
:101A000082420BD10948C06C40EA0140074BD864C0
:101A10001846806C40EA0140986402E040F20150B0
:101A200070470020FCE70000000001500000094062
:101A3000012A03D103680B43036002E003688B4370
:101A40000360704710B500BF00BF00BF00BF00BFFC
:101A5000BFF34F8F00BF00BF00BF00BF00BF00BF7C
:101A6000BFF36F8F00BF00BF00BF0020DA490860DE
:101A700000BF00BF00BFBFF34F8F00BF00BF00BF5C
:101A800000BF00BF00BFBFF36F8F00BF00BF00BF2C
:101A900000BF00BF0023D14C236000BF00BF00BFC8
:101AA00000BFBFF34F8F00BF00BF00BF231F1868E8
:101AB000C0F34E3100BFC0F3C90200BF43F6E0736C
:101AC00003EA41134FF0404404EA82742343C24CBA
:101AD0001034236000BF00BF131EA2F10102EDD13C
:101AE0000B1EA1F10101E6D100BF00BF00BFBFF393
:101AF0004F8F00BF00BF00BF00BF00BF00BFBFF3DC
:101B00006F8F00BF00BF00BF00BF00BF00BF00BF9E
:101B100000BF00BFBFF34F8F00BF00BF00BF00BFBB
:101B200000BF00BFBFF36F8F00BF00BF00BFAB4857
:101B30007038006820F40030A8497039086000202F
:101B4000A549086000BF00BF00BFBFF34F8F00BFB3
:101B500000BF00BF00BF00BF00BFBFF36F8F00BF5B
:101B600000BF00BF00BF00BF9C4C236000BF00BF90
:101B700000BF00BFBFF34F8F00BF00BF00BF974B38
:101B8000703B1B6823F48033944C703C236000BF8F
:101B900000BF00BFBFF34F8F00BF00BF00BF8F4B20
:101BA0001B1F1868C0F34E3100BFC0F3C90200BF4D
:101BB00043F6E07303EA41134FF0404404EA8274B1
:101BC0002343854C2434236000BF00BF131EA2F1C1
:101BD0000102EDD10B1EA1F10101E6D100BF00BF52
:101BE00000BFBFF34F8F00BF00BF00BF00BF00BFEB
:101BF00000BFBFF36F8F00BF00BF00BF00BF00BFBB
:101C000000BF00BF00BF00BFBFF35F8F00BF00BFBA
:101C100000BF72486038006820F480306F49603936
:101C200008606E481030006820F001006B491031E8
:101C3000086000BF6A486949183108606948091D91
:101C400008606948091F08606648091D0860674800
:101C5000091F08606648091D08606648091F08607A
:101C60006048801F091D0860042040F001015B4AA4
:101C70001032116059496039096841F48031574A7E
:101C8000603A116000BF00BF00BF00BFBFF34F8FBD
:101C900000BF00BF00BF00BF00BF00BFBFF36F8F1A
:101CA00000BF00BF00BF00BF00BF4C4B703B1B68B4
:101CB00003F4803303B149E00023484C236000BFA4
:101CC00000BF00BFBFF34F8F00BF00BF00BF231F87
:101CD0001868C0F34E3100BFC0F3C90200BF43F61D
:101CE000E07303EA41134FF0404404EA8274234353
:101CF000394C1034236000BF00BF131EA2F1010253
:101D0000EDD10B1EA1F10101E6D100BF00BF00BF64
:101D1000BFF34F8F00BF00BF00BF304B703B1B684D
:101D200043F480332D4C703C236000BF00BF00BFE4
:101D3000BFF34F8F00BF00BF00BF00BF00BF00BF99
:101D4000BFF36F8F00BF00BF00BF00BF00BF2348BD
:101D50007038006800F4003000B13BE000BF00BF05
:101D600000BFBFF34F8F00BF00BF00BF00BF00BF69
:101D700000BFBFF36F8F00BF00BF00BF0020164938
:101D8000086000BF00BF00BFBFF34F8F00BF00BFA0
:101D900000BF00BF00BF00BFBFF36F8F00BF00BF19
:101DA00000BF0E487038006840F400300B497039AD
:101DB000086000BF00BF00BFBFF34F8F00BF00BF70
:101DC00000BF00BF00BF00BFBFF36F8F00BF00BFE9
:101DD00000BF00BF10BD000050EF00E084ED00E048
:101DE0001300C031310010031400005015000063CF
:101DF000270008031600003070B505460C4601F0B8
:101E000065FE204602F086FD70BD2DE9FF4F85B0CE
:101E10000C4615461E4612AF97E8800FADF80440F9
:101E2000ADF80650ADF80860ADF80A70ADF80C805A
:101E3000ADF80E90ADF810A0ADF812B0102201A9C7
:101E40000598FEF709FA09B0BDE8F08F2DE9F047D3
:101E50002DED068B84B08046B0EE409AF0EE60AA7D
:101E60000D46B0EE418AF0EE619A1646F0EE428AD7
:101E7000B0EE62AA1F46DDE9129AB5EEC09AF1EE05
:101E800010FA0ADB9FED351A0020F0EE6A0AB0EE78
:101E9000490A02F07DF8284309E09FED301A01203D
:101EA000F0EE6A0AB1EE490A02F072F828430446DD
:101EB000200CADF80000A0B2ADF80200B5EEC08A6B
:101EC000F1EE10FA0ADB9FED251A0020F0EE690A08
:101ED000B0EE480A02F05CF8304309E09FED1F1AAB
:101EE0000120F0EE690AB1EE480A02F051F83043E1
:101EF0000446200CADF80400A0B2ADF80600F5EEE3
:101F0000C08AF1EE10FA0ADB9FED141A0020F0EE01
:101F10004A0AB0EE680A02F03BF8384309E09FED48
:101F20000F1A0120F0EE4A0AB1EE680A02F030F80A
:101F300038430446200CADF80800A0B2ADF80A0002
:101F4000ADF80C90ADF80EA0102269464046FEF7A1
:101F500083F904B0BDEC068BBDE8F0870000204299
:101F6000104880681049096808430F49086008460E
:101F700000680C498860084640690C4909680843B4
:101F80000A49086008460068064948610846006A30
:101F9000074909680843064908600846006801497E
:101FA0000862704700300840200000202400002014
:101FB00028000020F0B503460C4603F00701C1F1EC
:101FC0000700032801D9032001E0C1F107000646FC
:101FD000C81C072801D2002000E0081F0546012088
:101FE000B040401E2040A8400127AF407F1E174050
:101FF0003843F0BDC16070472DE9F04105460E46FB
:10200000002407205049C8600120504908604FF063
:1020100011314FF0C64211605160C9439160D160E7
:102020004FF02231116151614FF0EE319161D16178
:102030004FF03331116251624FF0EE319162D16253
:102040004FF04430106350639163D16300BF0121AE
:102050003D4800F0C2F80028F9D001213A48FFF7C6
:10206000C9FF0020394908600A20FEF7DBFF64E061
:10207000002036490860FFF75FF901272819344925
:1020800088651F213846FFF7CFF84FF0020828195E
:1020900040302F49B03108604FF4FF602C49C1F83F
:1020A000CC001F214046FFF7BFF8FFF751F940462B
:1020B000FFF77CF83846FFF779F800BF254800683D
:1020C00008B9012000E0002000F004000028F5D14C
:1020D00001210220FFF7A8F800BF1B48C06800F0EC
:1020E00001000028F9D001201749C86004F5804498
:1020F000164908601420FEF795FF4FF099304FF015
:10210000C6421060506001469160D160106150611C
:102110009161D161106250629162D1621163516329
:102120009163D16300BF0121074800F056F80028F1
:10213000F9D001210448FFF75DFFB44298D3012094
:1021400002490860BDE8F081000008500004015019
:1021500000000650E80206500FB49DF80410090371
:102160009DF8052041EA42219DF8062041EA02211E
:102170009DF8072041EA02119DF8082041EAC201BA
:102180009DF8092041EA82019DF80A2041EA4201B6
:102190009DF80B20114301609DF80C1009069DF875
:1021A0000D2041EA02519DF80E2041EA02419DF8BE
:1021B0000F2041EA02219DF8102041EA02119DF80A
:1021C000112041EA82019DF8122041EA42019DF866
:1021D00013201143416004B070470246D0680840A4
:1021E00008B1012070470020FCE7000030B5B5B011
:1021F0004FF0A040006840F400504FF0A04108604C
:1022000000208DF811008DF808008DF810000120D5
:102210008DF8060000208DF80F008DF80E000120CB
:102220008DF8120000208DF8090004208DF80400BC
:1022300000208DF80B008DF80C008DF80A008DF849
:1022400005000F208DF8070000208DF80D008DF897
:102250001300049800906A4801A90EC9FFF77CFF9B
:1022600006220121674800F04DF906220221654847
:1022700000F048F906220321624800F043F90622E3
:102280000421604800F03EF9062205215D4800F077
:1022900039F9062211465B4800F034F9062207217D
:1022A000584800F02FF906220821564800F02AF974
:1022B00006220921534800F025F907215048FFF76D
:1022C00099FE4FF0A040006840F000504FF0A04150
:1022D0000860FFF7DBF8FFF72FF8012400201D90BE
:1022E0004FF0C6401E9003208DF884008DF88500C5
:1022F00000208DF8820002208DF8830000208DF8E8
:1023000081008DF8800008202B9000208DF8B0000F
:102310008DF87E008DF87F0006208DF89900002052
:102320008DF8A0008DF8A1008DF8B300364A1DA9E4
:102330002046FEF7AFFE3448344941F824001F21FF
:102340002046FEF771FF01212046FFF7BFF8022566
:10235000402005904FF0C640069003208DF82400E1
:102360008DF8250000208DF8220002208DF8230032
:1023700001208DF8210000208DF82000139001200D
:102380008DF8500000208DF81E008DF81F000620EB
:102390008DF839008DF8380000208DF840008DF858
:1023A000410001208DF85300194A05A92846FEF77F
:1023B00071FE1748154941F825001F212846FEF7F0
:1023C00033FF01212846FFF781F807210C48FFF76A
:1023D00011FEFEF7BDFF132000280DDB00BF00BF7C
:1023E00000F01F02012191404209920002F1E02217
:1023F000C2F8001100BF00BF00BF35B030BD000003
:1024000000000850000001503170000070030020EF
:10241000C570000028480068284908604FF0A040B7
:10242000406800F47F4020B90846006824490860ED
:1024300009E04FF0A0404068C0F3072040001F496A
:102440000968B1FBF0F01E4908604FF0A0404068F9
:10245000C0B228B90846006840081A49086008E078
:102460004FF0A04040680006C00D15490968B1FB57
:10247000F0F0144908604FF0A040406800F0706030
:1024800028B90E48006840080F49086009E04FF07D
:10249000A0404068C0F30360400008490968B1FBF0
:1024A000F0F0094908600648006841F65531B0FB74
:1024B000F1F00649086070470C0000200000002081
:1024C0000400002008000020180000201C0000204C
:1024D00010B534210448FDF7D8FE02F0FDF8FFF7EF
:1024E00089F800F0B3F810BDB00800204FF0A0410B
:1024F000896881434FF0A042916011468968014389
:102500009160704730B504460B4600211CB1102B7A
:1025100001DA092A02D340F2011030BD4948844251
:102520001FD1082B0CDA484881699D000F20A84074
:1025300081439D0002FA05F00143434881617FE039
:102540004148C169A3F1080085000F20A8408143DC
:10255000A3F10800850002FA05F001433A48C16181
:102560006EE03848403084421FD1082B0CDA3648E0
:10257000016A9D000F20A84081439D0002FA05F0EA
:102580000143314801625BE02F48416AA3F1080032
:1025900085000F20A8408143A3F10800850002FABE
:1025A00005F00143284841624AE0264880308442D1
:1025B0001FD1082B0CDA2448816D9D000F20A84004
:1025C00081439D0002FA05F001431F48816537E011
:1025D0001D48C16DA3F1080085000F20A84081436C
:1025E000A3F10800850002FA05F001431648C16511
:1025F00026E01448C03084421FD1082B0CDA124860
:10260000016E9D000F20A84081439D0002FA05F055
:1026100001430D48016613E00B48416EA3F1080029
:1026200085000F20A8408143A3F10800850002FA2D
:1026300005F001430448416602E040F201106CE7F6
:1026400000206AE7000001500000094010B52E4844
:1026500002F0D6FD2D48C1682DA002F0D1FD2B4817
:1026600001692EA002F0CCFD2848017E2EA002F0C8
:10267000C7FD2648417E30A002F0C2FD2348817E7E
:1026800031A002F0BDFD214890F8201032A002F0E8
:10269000B7FD1E4890F8211034A002F0B1FD1B4890
:1026A000416A36A002F0ACFD184890F8281037A017
:1026B00002F0A6FD154890F8221038A002F0A0FD07
:1026C000124890F8291039A002F09AFD0F48C16A0B
:1026D0003AA002F095FD0D4890F82B103BA002F0B7
:1026E0008FFD0A4890F830103CA002F089FD0748A1
:1026F00090F831103DA002F083FD044890F83210AC
:102700003EA002F07DFD10BD7C910000B0080020CD
:1027100054494D453D25646D730D0A0050524F4795
:102720003D253032640D0A00636661725468564775
:102730003D253032640D0A00636661725468565359
:102740003D253032640D0A00636661725468563D5F
:10275000253032640D0A000063666172566D6F6445
:10276000653D253032640D0A000000007065616B24
:10277000656E563D253032640D0A000064706B545E
:10278000683D253032640D0A0000000064706B540F
:10279000696D65733D253032640D0A006E756D54A8
:1027A0004C563D253032640D0A0000006D65616EA7
:1027B000456E3D253032640D0A0000006368697281
:1027C000704761703D256475730D0A0062616E6427
:1027D00057696474683D25640D0A00006366617280
:1027E0005468533D253032640D0A00006672616DF5
:1027F000654761703D25640D0A0000006E756D53DC
:10280000756D3D25640D0A000DE00748D0F8D041F4
:1028100000235A1E19460548006805F047F820466F
:1028200003F070FD00BFF0E798060020380100209B
:102830002DE9F04107460D469C460021002000236B
:102840006F4C236055231370AA235370891C07EB28
:102850004703062404EB43005054491CC0F30723EC
:102860005354491CC0F307435354491C030E53549B
:10287000491C02F801C04FEA1C244B1CD454891C8B
:1028800001235354491C5354491C5754491CC7F342
:1028900007235354491C00232BE0C3EBC30415F852
:1028A00024405454491CC3EBC30435F82440240A83
:1028B0005454491CC3EBC30405EB8404A47854545A
:1028C000491CC3EBC30405EB8404A4795454491C8C
:1028D000C3EBC30405EB8404247A5454491CC3EBB2
:1028E000C30405EB84042469C4F307345454491C1D
:1028F0005B1CBB42D1D300236EE0424C54F8234012
:1029000004EB440400EB4404E01C3E4C643CE48EC5
:10291000DFF8F080A8F1640898F8228004FB08F43E
:10292000C4EBC4044FEA8408364C643CD4F8D44168
:1029300008FB03469C1C5454491C324C14F8234099
:102940005454491C2F4C34F82340C4F307245454E6
:10295000491C002438E0C4EBC40816F8288002F8AB
:102960000180491CC4EBC40836F828804FEA1828B7
:1029700002F80180491CC4EBC40806EB880898F8EB
:10298000028008F1200802F80180491CC4EBC40849
:1029900006EB880898F8068002F80180491CC4EB11
:1029A000C40806EB880898F8088002F80180491CE2
:1029B000C4EBC40806EB8808D8F81080C8F30738C1
:1029C00002F80180491C641CDFF8388058F8238025
:1029D000A045C0D85C1CE3B2062B8EDB022150540C
:1029E000491CC0F307235354491CC0F307435354F5
:1029F000491C030E5354491C801DBDE8F0810000A2
:102A000054010020FC06002010B588B0002005907D
:102A10000690079001900290039004900024FE48D5
:102A2000007A01287ED14FF0E020006900F001001B
:102A300040B101244FF0E020006920F001004FF088
:102A4000E02108612021F548FDF71FFCF2484068AD
:102A5000401EF14948600222F1A1EF480A30FDF71B
:102A60001FFC38B9EC484068022803D1EDA002F001
:102A7000C7FB4DE20822EDA1E7480A30FDF710FC44
:102A800050B9E5484068082806D10120EA49087095
:102A90000020EA490860ECE70822E9A1DE480A3094
:102AA000FDF7FEFB50B9DC484068082806D100203D
:102AB000E649086002F08EFB00BFFEE70922E4A1B0
:102AC000D5480A30FDF7ECFB48B9D6A002F098FBD8
:102AD0000020D14948640220D7490870C9E708227C
:102AE000DEA1CD480A30FDF7DBFB002873D1CA48D0
:102AF0004068083800286ED0C74840680838062863
:102B000069D2C5484068A0F1080205A9C248123040
:102B1000FDF72CFC0028ACD1BF48406808380128DC
:102B200006D000E0D7E3BC4840680838022803D14B
:102B30009DF81400C049C860B748406808380328A9
:102B400004D0B5484068083804280BD19DF815001A
:102B50009DF8141001EBC10202EB011100EB8100A2
:102B6000B549C860AC4840680838052812D19DF8BE
:102B7000140042F2107110FB01F09DF8151001EBEA
:102B8000C10202EB011100EB81009DF81610084410
:102B9000A949C860A848C0684EF6602188429DD8FF
:102BA000A549C86801A902F023FB01AA0421480431
:102BB000FEF74AFD50B94FF4002000689E49C860F6
:102BC0000846C168A8A002F01BFB52E7A9A002F0CA
:102BD00017FB4EE7FFE70822ABA18F480A30FDF74D
:102BE0005FFB80BB8C4840680838022830D18A4897
:102BF0004068A0F1080205A987481230FDF7B6FB2E
:102C00000028E2D19DF814008B490861084600694C
:102C10000028DAD0084600690228D6D8086901A938
:102C200002F0E6FA01AA04219A48FEF70DFD58B910
:102C30004FF400204068804908610846016996A069
:102C400002F0DEFA15E703E08AA002F0D9FA10E7F5
:102C50000B2295A170480A30FDF722FB88BB6E4815
:102C600040680B3868B36C4840680B3803282DD295
:102C700069484068A0F10B0205A967481530FDF7C7
:102C800075FB0028A1D19DF814006B498876084691
:102C9000807E632899DA887E01A902F0A9FA01AA48
:102CA00004217C481030FEF7CFFC58B94FF40020C7
:102CB0004069614988760846817E6BA002F0A0FADF
:102CC000D7E603E06BA002F09BFAD2E60C2279A1D2
:102CD00051480A30FDF7E4FA88BB4F4840680C3889
:102CE00068B34D4840680C3803282DD24A484068E4
:102CF000A0F10C0205A948481630FDF737FB002863
:102D0000A0D19DF814004C4908760846007E63283F
:102D100098DA087E01A902F06BFA01AA04215D4845
:102D20000830FEF791FC58B94FF40020C0684249C2
:102D300008760846017E4CA002F062FA99E603E0AC
:102D40004CA002F05DFA94E60C225EA132480A30F3
:102D5000FDF7A6FA88BB304840680C3868B32E48A7
:102D600040680C3803282DD22B484068A0F10C0293
:102D700005A929481630FDF7F9FA0028A0D19DF8D9
:102D800014002D4948760846407E632898DA487E2C
:102D900001A902F02DFA01AA04213E480C30FEF7E9
:102DA00053FC58B94FF4002000692349487608467F
:102DB000417E2DA002F024FAF2E303E02DA002F000
:102DC0001FFAEDE30D2243A113480A30FDF768FA1C
:102DD00000BB114840680D38E0B10F4840680D381D
:102DE000032817D20C484068A0F10D0205A90A4833
:102DF0001730FDF7BBFA0028A0D19DF814000E494A
:102E000081F82000084690F82000632896DA91F8AF
:102E1000200067E082E00000F0020020900800201F
:102E20004154000041542B4F4B0A000041542B5396
:102E30005441525400000000B00800204C01002012
:102E400041542B524553455400000000C00401502A
:102E500041542B494D504F525400000041542B54C3
:102E6000494D453D0000000041542B4F4B3D25642A
:102E70000D0A000053617665205061726120466141
:102E8000696C0D0A0000000041542B50524F473D21
:102E9000000000000400080041542B4F4B3D25303A
:102EA00032640D0A0000000041542B434641525445
:102EB00048563D0041542B43464152544856473DE5
:102EC0000000000041542B43464152544856533DA4
:102ED0000000000041542B43464152564D4F44459B
:102EE0003D00000001A902F083F901AA0421FA487B
:102EF000FEF7AAFB68B94FF40020406BF74981F850
:102F00002000084690F82010AFF2A40002F078F9F3
:102F100046E3AFF2A00002F073F941E30B22F0A107
:102F2000F248FDF7BDF9D0BBF0480A3840680B38CD
:102F300002283AD1ED480A384068A0F10B0205A9F1
:102F4000EA480B30FDF712FA0028E1D19DF8140091
:102F5000E24981F82100084690F821000028D7DBDB
:102F6000084690F821000128D2DC91F8210001A93F
:102F700002F03EF901AA0421D7480838FEF764FBA5
:102F800070B94FF40020C06AD44981F82100084686
:102F900090F82110AFF2001002F032F900E304E0E3
:102FA000AFF2301002F02CF9FAE20922D0A1CF489A
:102FB000FDF776F9A8BBCD480A384068093880B3D8
:102FC000CA480A3840680938032830D2C7480A3846
:102FD0004068A0F1090205A9C4480930FDF7C6F907
:102FE000002895D19DF81400BC4948620846406A03
:102FF00063288DD8486A01A902F0FAF801AA0421D1
:10300000B548001DFEF720FB60B94FF40020806B2F
:10301000B24948620846416AAFF2B41002F0F0F8D3
:10302000BEE204E0AFF2B41002F0EAF8B8E20C221B
:10303000B2A1AE48FDF734F9C8BBAC480A384068C5
:103040000C38A0B3A9480A3840680C38032834D299
:10305000A6480A384068A0F10C0205A9A3480C3024
:10306000FDF784F9002899D19DF814009B4981F857
:103070002800084690F8280010288FDC91F82800D6
:1030800001A902F0B5F801AA042193480830FEF71F
:10309000DBFA68B94FF40020C06B904948620846DB
:1030A00090F82810AFF2402002F0AAF878E204E08D
:1030B000AFF2402002F0A4F872E2082293A18B48FC
:1030C000FDF7EEF8D0BB89480A3840680838022876
:1030D0003AD186480A384068A0F1080205A9834819
:1030E0000830FDF743F900289AD19DF814007B4978
:1030F00081F82900084690F82900002890DB08464E
:1031000090F8290002288BDC91F8290001A902F02F
:103110006FF801AA042170481030FEF795FA70B9D3
:103120004FF40020406C6D4981F82900084690F862
:103130002910AFF29C2002F063F831E204E0AFF214
:10314000CC2002F05DF82BE2082273A16748FDF75E
:10315000A7F8D0BB65480A3840680838A8B3634868
:103160000A3840680838032835D260480A38406871
:10317000A0F1080205A95D480830FDF7F7F800281E
:1031800094D19DF81400554981F82A00084690F81A
:103190002A0063288ADA91F82A0001A902F028F8A7
:1031A00001AA04214C481430FEF74EFA70B94FF4CE
:1031B0000020806C494981F82A00084690F82A10BE
:1031C000AFF22C3002F01CF8EAE104E0AFF25C3020
:1031D00002F016F8E4E1072252A14448FDF760F836
:1031E000F0BB42480A384068C01FC8B33F480A389D
:1031F0004068C01F062833D23C480A384068C21FC6
:1032000005A93A48C01DFDF7B1F8002895D1374807
:103210000A384068C01F012805D034480A38406881
:10322000C01F022803D19DF814002C49C8622F4802
:103230000A384068C01F032805D02C480A38406867
:10324000C01F04280BD19DF815009DF8141001EB48
:10325000C10202EB011100EB81002049C86200E0CD
:103260006AE022480A384068C01F052812D19DF83C
:10327000140042F2107110FB01F09DF8151001EBE3
:10328000C10202EB011100EB81009DF81610084409
:103290001249C8621148C06A502895D30F48C06AC5
:1032A000B0F5486F90D80D49C86A01A901F0A0FF98
:1032B00001AA042108481830FEF7C6F9B0BB4FF444
:1032C0000020C06C0549C8620846C16AAFF2684078
:1032D00001F096FF64E172E134000800B0080020BC
:1032E00041542B5045414B454E563D00FA020020BB
:1032F00041542B44504B54483D00000041542B4452
:10330000504B54494D45533D0000000041542B4D56
:1033100045414E3D0000000041542B5A4F54483D5A
:103320000000000041542B4741503D00FFE7AFF241
:10333000BC4001F065FF33E10622A2A1A348FCF7DF
:10334000AFFFE8BBA1480A384068801FC0B39F4860
:103350000A384068801F032838D29C480A384068E1
:10336000821F05A99948801DFDF700F80028B1D1FA
:103370009DF81400964981F82B00084690F82B0020
:103380000028A7DB084690F82B000A28A2DC91F859
:103390002B0001A901F02CFF01AA04218D48FEF7A2
:1033A00053F970B94FF40020006D894981F82B0062
:1033B000084690F82B10AFF2205001F021FFEFE00B
:1033C00004E0AFF2505001F01BFFE9E00B2282A1B4
:1033D0007E48FCF765FFD0BB7C480A3840680B3854
:1033E000A8B37A480A3840680B38032835D27748A2
:1033F0000A384068A0F10B0205A974480B30FCF7AD
:10340000B5FF002897D19DF81400714981F830006C
:10341000084690F83000632818DA91F8300001A9C6
:1034200001F0E6FE01AA04216A48001DFEF70CF92E
:1034300070B94FF40020406D654981F830000846AE
:1034400090F83010AFF2E05001F0DAFEA8E004E0AE
:10345000AFF2E05001F0D4FEA2E0082261A15B4887
:10346000FCF71EFFC8BB59480A3840680838A0B3AB
:1034700056480A3840680838032834D253480A3876
:103480004068A0F1080205A950480830FCF76EFF1B
:1034900010BB9DF814004E4981F83100084690F8A1
:1034A000310063287CDC91F8310001A901F0A0FE15
:1034B00001AA042147480830FEF7C6F870B94FF456
:1034C0000020806D424981F83100084690F83110A3
:1034D000AFF26C6001F094FE62E004E0AFF26C6069
:1034E00001F08EFE5CE00A2241A13848FCF7D8FECC
:1034F000F0BB36480A3840680A38C8B333480A383F
:1035000040680A38032841D230480A384068A0F1A0
:103510000A0205A92D480A30FCF728FF48BB9DF890
:1035200014002B4981F83200084690F83200012837
:1035300009D0084690F83200082804D0084690F8D0
:10354000320010282CD1224991F8320001A901F053
:103550004FFE01AA04211F480C30FEF775F880B910
:103560004FF40020C06D1A4981F83200084601E08E
:103570000CE015E090F83210AFF2147001F040FE4C
:103580000EE0AFF2107001F03BFE09E00F480A3880
:103590000E494268194801F021FC19A001F030FEE3
:1035A00000200A490A3948600872012C07D14FF0FF
:1035B000E020006940F001004FF0E02108610020A8
:1035C00008B010BD41542B42573D0000FA020020C4
:1035D000B00800205000080041542B43464152548B
:1035E00048533D0041542B464741503D00000000E8
:1035F00041542B4E554D53554D3D0000380300208E
:103600000A41542B4552520A0000000001B596B001
:103610004FF4BF71FE48FCF738FE4FF44460FC499C
:1036200008804FF4404048800120888040F61F40C9
:1036300008821698C07E01011698807E41EA8000BB
:103640001699497E0843F24948821698007E010384
:103650001698C07D41EA00211698807D41EA00104D
:103660001699497D0843EA4988820020C88244F2BD
:103670000700888445F23810C88443F20370088537
:103680000020488588854FF47F4048860020888642
:10369000FF20C886002008874FF4005048871698FE
:1036A000007D401E032141EA0020D9498887D9487E
:1036B00090ED000A8DED0C0A9DED0C0A00F010FA59
:1036C00015901598000CD249C885159881B2D0483C
:1036D0000186002045F20141CDE90010169890EDD9
:1036E000020AD0ED030A30EE200A8DED040A90EDB7
:1036F000030A8DED080A90ED010A8DED070A90EDA1
:10370000020A8DED060A90ED010A8DED050A90ED95
:10371000010A8DED030A0023DDED082A9DED072A3D
:103720001A46DDED061A9DED051A1946DDED040A6F
:103730009DED030A09A8FEF789FB09A80FC8CDE98A
:103740000F23CDE90D01002045F20141CDE9001024
:10375000169890ED040A8DED080A90ED010A8DEDA2
:10376000070A0023DFEDAC2A9FEDAB2A1A46DFEDF6
:10377000AA1A9FEDA91A1946DDED080A9DED070A60
:1037800009A8FEF763FB102209A911A8FCF764FD44
:1037900000200121CDE90101CDE903100091BDF820
:1037A0003A00401C80B20890BDF834000023079016
:1037B000014609A8089AFEF728FB102209A9944897
:1037C0003E30FCF749FD002001210190CDE90201C6
:1037D00004900090BDF83E000890BDF8340000232E
:1037E0000790014609A8089AFEF70FFB102209A9C5
:1037F00087484E30FCF730FD002001210190CDE9D3
:103800000201049000900DA8408A0890BDF8440081
:1038100040F4004000230790014609A8089AFEF7EB
:10382000F4FA102209A97A485E30FCF715FD002051
:103830000121CDE90101CDE903100091BDF83A0065
:10384000401C80B20890BDF8340000230790014668
:1038500009A8089AFEF7D9FA102209A96C486E3017
:10386000FCF7FAFC4FF40050012100220192CDE94F
:10387000022100920490BDF83E000890BDF834008B
:1038800013460790014609A8089AFEF7BEFA1022CF
:1038900009A95F487E30FCF7DFFC00200121019080
:1038A000CDE90201049000900DA8408A0890BDF86F
:1038B000440040F4004000230790014609A8089AFC
:1038C000FEF7A3FA102209A951488E30FCF7C4FC78
:1038D00000200121CDE90101CDE903100091BDF8DF
:1038E0003A00401C80B20890BDF8340000230790D5
:1038F000014609A8089AFEF788FA102209A9444847
:103900009E30FCF7A9FC4FF4805001210022019267
:10391000CDE9022100920490BDF83E000890BDF868
:10392000340013460790014609A8089AFEF76DFA7D
:10393000102209A93648AE30FCF78EFC0020012188
:103940000190CDE90201049000900DA8408A0890F2
:10395000BDF8440040F4004000230790014609A848
:10396000089AFEF752FA102209A92948BE30FCF73E
:1039700073FC00200121CDE90101CDE90310009184
:10398000BDF83A00401C80B20890BDF83400002316
:103990000790014609A8089AFEF737FA102209A9EC
:1039A0001B48CE30FCF758FC4FF480400121002228
:1039B0000192CDE9022100920490BDF83E000890EA
:1039C000BDF8340013460790014609A8089AFEF78F
:1039D0001CFA102209A90E48DE30FCF73DFC00203D
:1039E00001210190CDE90201049000900DA8408AC8
:1039F0000890BDF8440040F40040002307900146C1
:103A000009A8089AFEF701FA102209A9004805E062
:103A100090030020E800002000000000EE30FCF7DA
:103A20001BFC00200121CDE90101CDE9031000912B
:103A3000BDF83A00401C80B20890BDF83400002365
:103A40000790014609A8089AFEF7DFF9102209A994
:103A50001D48FCF701FC4FF40040012100220192B7
:103A6000CDE9022100920490BDF83E000890BDF817
:103A7000340013460790014609A8089AFEF7C5F9D5
:103A8000102209A910481030FCF7E6FB00200121A4
:103A90000190CDE90201049000900DA8408A0890A1
:103AA000BDF8440040F4004000230790014609A8F7
:103AB000089AFEF7AAF9102209A903482030FCF75A
:103AC000CBFB17B000BD00008E04002010B5FDF741
:103AD000B3F901220E21002000F0AEFB10BD000062
:103AE00070B52DED048BC0B0F0EE408A00269FED3E
:103AF0007E0AB0EE408A002400259FED7B0AB0EEDE
:103B0000409AA82116A8FCF7C0FB542101A8FCF795
:103B1000BCFB9FED760A68EE800AB3EE001A80EED9
:103B2000810ADFED730A80EE201AB0EE418ABDEE05
:103B3000C80A10EE100AA0F14004BDEEC80AB8EEA3
:103B4000C00A38EE400AB0EE409A204604EBD0712D
:103B50004D10002004E0294605EBD1725510401CA1
:103B60000528F8D30221284602F036FC46EAC06652
:103B7000204604EBD0714D10002004E0294605EBEF
:103B8000D1725510401C0428F8D30221284602F0B7
:103B900023FC46EA8066204604EBD0714D100020DD
:103BA00004E0294605EBD1725510401C0328F8D3D8
:103BB0000221284602F010FC46EA4066204604EB4B
:103BC000D0714D10002004E0294605EBD17255104C
:103BD000401C0228F8D30221284602F0FDFB46EAE9
:103BE0000066204604EBD0714D10284605EBD071DD
:103BF0004D100221284602F0EFFB46EAC05620464F
:103C000004EBD0714D100221284602F0E5FB46EA94
:103C10008056204604EBD0714D10022102F0DCFBEF
:103C200046EA4056B0EE000A29EE000A8DED160A6B
:103C30009DED160ABDEEC00A8DED010ADDED160AF6
:103C40009DED010AB8EEC00A30EEC00A8DED170AEC
:103C5000019846EA005600203FE04100491C16AAA0
:103C600002EB810191ED000AF0EE000A20EE200A3D
:103C70004100891C02EB810181ED000A4100891C91
:103C800002EB810191ED000ABDEEC00A10EE101AA0
:103C900001AB421C43F822104100891C16AA02EB1A
:103CA0008101D1ED000A01AA411C52F8211000EE59
:103CB000101AB8EEC00A30EEC00A4100C91C16AA9C
:103CC00002EB810181ED000A01AA411C52F821108A
:103CD000C0F1130291400E43401C1428BDD330465E
:103CE00040B0BDEC048B70BD0000000000007A44C1
:103CF00000002042F8B505460C4604F03F0040F0B5
:103D0000400011490870FF204870887072B6002189
:103D1000284600F023F902200C4B03220A490090A8
:103D20000B4801F017F90121284600F017F962B697
:103D3000012008490860054880780449497840EA2C
:103D400001263046F8BD00005C0300206603002019
:103D5000A802002028040150F8B506460C46154676
:103D60007E201249087004F07F004870E02000EACD
:103D700045108870FF20C87008710021304600F09F
:103D8000EDF802200A4B052208490090094801F08D
:103D9000E1F80121304600F0E1F8054800790449D6
:103DA000C97840EA01273846F8BD00005C030020CE
:103DB00066030020A802002010B500F000FB0022DE
:103DC0000C21104600F038FA00220D21104600F0B8
:103DD00033FA00221421104600F02EFA0022152199
:103DE000104600F029FA00221621104600F024FAAD
:103DF00000221721104600F01FFA00221E21104653
:103E000000F01AFA00221F21104600F015FA0022D5
:103E10002021104600F010FA00222121104600F067
:103E20000BFA00222221104600F006FA10BD000015
:103E300030B585B0474802880C21002000F0FCF91D
:103E4000444842880D21002000F0F6F94148028ADA
:103E50001421002000F0F0F93E48428A152100208C
:103E600000F0EAF93B48828A1621002000F0E4F9CC
:103E70003848C28A1721002000F0DEF93548828CCC
:103E80001E21002000F0D8F93248C28C1F210020EA
:103E900000F0D2F92F48028D2021002000F0CCF94B
:103EA0002C48428D2121002000F0C6F92948828D3E
:103EB0002221002000F0C0F92648428E0621002071
:103EC00000F0BAF92348828E0721002000F0B4F9EF
:103ED0002048C28E0821002000F0AEF91D48028F54
:103EE0000921002000F0A8F91A48428F0A21002079
:103EF00000F0A2F91748828F0B21002000F09CF9F6
:103F00001448C28D0421002000F096F91148028E59
:103F10000521002000F090F9002414E00D483E3007
:103F200000EB0410C06800900A483E3000EB04111A
:103F3000102201A8FCF790F9E5B2284601A90EC9A4
:103F400000F020F9641C0448007DA042E6D805B0CA
:103F500030BD000090030020E800002030B10128AF
:103F600007D0022809D004280CD107E0074A1160C5
:103F700009E0064A121D116005E004E0034A183A00
:103F8000116000BF00BF00BF70470000280401504F
:103F9000F0B52DED088BBFB0F0EE408AB0EE609A20
:103FA0000646F0EE419A00249FED720AB0EE40AA58
:103FB0009FED700AF0EE40AA00259FED6E0AB0EE6C
:103FC00040BA9FED6C0AB0EE408A782121A8FCF738
:103FD0005CF9802101A8FCF758F9B7EE000AC0EEA1
:103FE000290AB0EE608AB2EE000A28EE000AC9EE95
:103FF000000AB2EE000A20EE800A20EE080AF0EE77
:1040000040AAB2EE000A28EE000ACAEE800ABDEE0F
:10401000E00A10EE105A9FED580A28EE800ADFEDF4
:10402000560A60EE200A00EE105AB8EEC00AB2EE50
:10403000001A20EE010A80EE801AB0EE41AAF3EEDB
:10404000000A8AEE200ADFED4D0A80EE201AB0EE5B
:1040500041BA44EAC6749FED4A0A2BEE000A8DED80
:10406000210A9DED210ABDEEC00A8DED010ADDEDAC
:10407000210A9DED010AB8EEC00A30EEC00A8DEDAE
:10408000220A019844EA807400203FE04100491C64
:1040900021AA02EB810191ED000AF0EE000A20EE68
:1040A000200A4100891C02EB810181ED000A4100D8
:1040B000891C02EB810191ED000ABDEEC00A10EEF1
:1040C000101A01AB421C43F822104100891C21AA9E
:1040D00002EB8101D1ED000A01AA411C52F8211026
:1040E00000EE101AB8EEC00A30EEC00A4100C91C3A
:1040F00021AA02EB810181ED000A01AA411C52F8BC
:104100002110C0F11D0291400C43401C0E28BDD36C
:10411000284605EBD0714910119100200DE001AB4C
:1041200000F1100253F8221001EBD172531001AFCD
:1041300000F1110247F82230401C0C28EFD3002375
:104140000BE003F1100101AA52F82100022102F054
:1041500043F9D91C884004435B1C0D2BF1D3022189
:10416000284602F039F944EA800420463FB0BDEC0D
:10417000088BF0BD0000000000007A4400401C479E
:10418000000000420FB410B50446BDF80C30072201
:104190002146002000F0A0F8BDF80E30062221468E
:1041A000002000F099F8BDF81030052221460020CB
:1041B00000F092F8BDF8123004222146002000F0F1
:1041C0008BF8BDF8143003222146002000F084F85B
:1041D000BDF8163002222146002000F07DF8BDF81F
:1041E000183001222146002000F076F8BDF81A3080
:1041F00000222146104600F06FF810BC5DF814FB59
:1042000001B59DF8000000F03F0040F080000090F4
:1042100072B600200649086002230122694605485B
:1042200000F0E0FE01200249086062B608BD00000F
:1042300028040150A8020020F8B506460D46144691
:1042400072B629463046FFF755FDA04223D005F04F
:104250003F0012490870201248708C7000213046CF
:10426000FFF77CFE022303220C490D4800F0BAFE42
:1042700001213046FFF772FE29463046FFF73AFD2E
:104280000746A74206D03B462A46314605A0009481
:1042900000F0B6FF00BF62B6F8BD00005C0300206E
:1042A000A80200204552524F523A63733D25642CB8
:1042B000616464723D253032582C726561644461DA
:1042C00074613D253034582C6F7269446174613DCE
:1042D000253034580A0000002DE9F84380460E4688
:1042E00017461C463E202249087006F07F004870A1
:1042F000E02000EA47108870200AC8700C71002185
:104300004046FFF72BFE022305221949194800F009
:1043100069FE01214046FFF721FE3A4631464046FC
:10432000FFF71AFD0546A5421FD013A000F068FF55
:1043300000214046FFF712FE022305220C490D48DA
:1043400000F050FE01214046FFF708FE3A46314694
:104350004046FFF701FD0546A54206D023463A46F2
:10436000314607A0009500F04BFFBDE8F883000040
:104370005C030020A80200207265747279000000BE
:1043800052616464723D253032782C4361646472FA
:104390003D253032782C5772697465646174613DD3
:1043A000253034782C52656164646174613D253038
:1043B00034580A0010B50020FFF722FF10BD10B5D9
:1043C0000220FFF71DFF10BD70B504464FF0A0405E
:1043D000006840F400104FF0A04108600846806873
:1043E00020F4001088600846806840F4001088605F
:1043F000AE4890F82B00012825D19FEDAD0A84ED41
:10440000000AB3EE040A84ED020AB1EE0A0A84ED52
:10441000010A9FEDA80A84ED030AA448C06A4B383C
:1044200000EE100AB8EE400A84ED040A0020607520
:104430000120A075E075207694F82300401C00EB65
:104440004000207526E09FED9A0A84ED000AB2EE46
:10445000040A84ED020A9FED980A84ED010A9FED9B
:10446000950A84ED030A9148C06A413800EE100AAB
:10447000B8EE400A84ED040A002060750120A075A2
:104480000320E0750120207694F82300401C00EB07
:10449000400020752046FFF7B9F801F04FF920469B
:1044A00001F0CEFCFCF7CAF8FCF75EF814200028F7
:1044B0000DDB00BF00BF00F01F0201219140420947
:1044C000920002F1E022C2F8001100BF00BF00BF5D
:1044D0007A490A89D1F8E0007949FCF79FFB00206E
:1044E0002AE08100774A32F811207449D1F8E810A7
:1044F00041F82020012101EB8001724A32F811209D
:104500006E49D1F8EC1041F82020022101EB800126
:104510006C4A32F811206949D1F8F01041F8202096
:10452000032101EB8001674A32F811206349D1F879
:10453000F41041F82020401C604949898142D0D8BC
:104540005E490A8CD1F814015F49FCF773FB5B49A3
:10455000C97C5A4B1B8C01FB03F25849D1F8F80077
:104560005A49FCF767FB0020594A106050605348D5
:10457000D0F8B0010021042208431143544A383ACC
:10458000106051604D48D0F8B40100210422084366
:1045900011434F4A303A106051604848D0F8140136
:1045A0000021464AD2F8AC210B4611431843484A31
:1045B000283A1160506000204049D1F8DC100860B2
:1045C0003E48C07E401EC117090541EA1031020570
:1045D0000723194339488089401EC3171B0243EA49
:1045E000106342EA0022194300231A4319430223AD
:1045F0001A434FF047500265416500204FF0475283
:104600009065D0652D48D0F8DC00002108430943AF
:1046100010665166294880892849B1F8CE10484370
:104620002649898989000A4640EAE1704FF04751DE
:104630008A66C8662148D0F8200100210422084378
:1046400011434FF047521067516722480168406894
:10465000022211431F4A11605060D81E1D4AF03AD1
:10466000106050601B481038016840685B1F19409B
:10467000184A103A116050601648083801684068BE
:1046800001231943134A083A1160506018020021AF
:10469000FCF742FB0F4810380168406802231943B9
:1046A0000C4A103A1160506070BD0000B008002044
:1046B00000006A4200005C429A99B94098060020C6
:1046C000FC800000FC840000FC860000FC880000E8
:1046D0008001C0311004C0314FF4002000688049CF
:1046E000C8600846C0684EF66021884202D9322070
:1046F0007B49C86001207A4908610846006918B101
:1047000008460069022802D9022075490861002084
:10471000734908704FF40020C06808760846007E90
:10472000632801DD082008764FF4002000696C49F9
:1047300048760846407E632801DD082048764FF41D
:1047400000204069664988760846807E632801DD3E
:10475000082088764FF40020406B614981F82000E2
:10476000084690F82000022802DD012081F8200090
:104770004FF40020C06A5A4981F82100084690F899
:10478000210038B1084690F82100012802D000200D
:1047900081F821004FF40020806B5149486208469F
:1047A000406A632801D90C2048624FF40020C06B96
:1047B0004B4981F82800084690F82800102803DCAF
:1047C000084690F8280018B90220454981F82800C9
:1047D000434890F82200032804DB414890F8220067
:1047E000032803DD01203E4981F822004FF4002018
:1047F000406C3B4981F82900084690F829000228BE
:1048000002DD012081F829004FF40020806C34493A
:1048100081F82A00084690F82A00632802DB0A2063
:1048200081F82A004FF40020C06C2D49C862084668
:10483000C06A502804D30846C06AB0F5486F02D950
:1048400050202749C8624FF40020006D244981F8A8
:104850002B00084690F82B0038B1084690F82B0042
:10486000012802D0002081F82B004FF40020406D79
:104870001B4981F83000084690F83000632802DDBB
:10488000102081F830004FF40020806D144981F829
:104890003100084690F83100012804DB084690F802
:1048A0003100632803DD02200D4981F831004FF407
:1048B0000020C06D0A4981F83200084690F83200A5
:1048C00001280CD0084690F83200082807D0084686
:1048D00090F83200102802D0102081F83200704782
:1048E000B008002010B5322002F084FD084890F88E
:1048F0003C0058B1322002F07DFD012004490872CD
:10490000FEF782F80020024981F83C0010BD00004B
:10491000F002002070B50446082000F031F810487D
:10492000406A20F002000E494862A3796279217939
:10493000206800F031F80A48406A40F00200084957
:1049400048620846406A40F00400486202210020A4
:1049500000F04AF8FDF75EFD024800F08DFB70BDE7
:1049600000000840380300200449C96921F00C0107
:10497000024AD16141EA8001D161704700000840DC
:104980004FF0A041496821F4702141EA00414FF005
:10499000A04251607047000030B50446104880695D
:1049A00020F4806020F00F0040EA812010430C4D7D
:1049B000A8612846C06920F4803040EA0340E861DD
:1049C000481CB4FBF0F002F108056843022505EB32
:1049D0004305B0FBF5F0034D28602846006830BD64
:1049E000000008400C0000204FF0A04252686FF316
:1049F0000F0242EA00220A434FF0A0435A60704778
:104A000010B506480068401C0449086003F086F9A8
:104A1000012801D002F012FF10BD00005C0100204F
:104A200010B50B4800684FF47A71B0FBF1F04FF00D
:104A3000E0214861002088610720086107214FF0CC
:104A4000FF3000F02BFC4FF0FF3000F0FAFB10BD00
:104A50000400002010B50220FFF786FF33483449D8
:104A60000864344800684FF0FF3032490860084657
:104A700040684FF0FF3048600846006820F08060D2
:104A800008600846406820F0806048600846C068BA
:104A90004FF0FF30C860084600694FF0FF300861F2
:104AA000084680694FF0FF3088610F20FFF768FFEC
:104AB00004200246204B19684FF6FF0319401F4B94
:104AC0000B4343EA02211C4B196000BFFCF73EFA7E
:104AD000FCF7C0F9FCF7E8F9082019490870002034
:104AE0004870012088701748174908600020087135
:104AF00004204871002088711148FDF77DF90420D9
:104B0000FFF73EFFFCF7E0FBFCF73CF900F02EFB63
:104B1000FCF798FFFDF76AFB0C48406840F0400046
:104B20000A494860FFF77CFF10BD00001413EBEC4E
:104B300000000840003008400CED00E00000FA05DD
:104B4000B0000020005A6202B400002000000850AB
:104B500000B500200B490861FCF772FE4FF0A04041
:104B6000006840F080504FF0A0410860084600689F
:104B700040F0006008600846006840F0806008600F
:104B800000BD00000000084010B50548C068054899
:104B90000068401C0349086002F01CFB10BD0000C7
:104BA000004002405801002010B51448C1680020A0
:104BB00000F02EF80E20002817DB00F01F02012164
:104BC00091400F4A430942F8231000BF00BF00BFC5
:104BD000BFF34F8F00BF00BF00BF00BF00BF00BFCB
:104BE000BFF36F8F00BF00BF00BF00BF06210E20C4
:104BF00000F054FB0E2000F024FB10BDB008002094
:104C000080E100E010B50420FDF770FC10BD00004D
:104C10002DE9F04707460E466E4800684FF47A715A
:104C2000B0FBF1F806FB08F400250020D4F1FF31B9
:104C3000A84102D20020BDE8F08737B1012F30D063
:104C4000022F5AD0032F7CD18DE04FF0A040006896
:104C500040F004004FF0A0410860FFF7D3FF00F0E0
:104C600001FB824600220521FDF7A4F98146494651
:104C70000E2000F0FFFA0E2000F0D2FA56488068AD
:104C800020F00100544988600846806840F0020026
:104C9000886008460460806840F001008860F0B2D7
:104CA000C9E74FF0A040006840F004004FF0A04179
:104CB0000860FFF7A7FF00F0D5FA82460022052121
:104CC000FDF778F9814649460F2000F0D3FA0F200E
:104CD00000F0A6FA4048C06920F001003E49C861D2
:104CE0000846C06940F00200C86108464461C069D6
:104CF00040F00100C861F0B29DE74FF6FF7100205F
:104D0000091BA84101D2002095E74FF0A0400068A0
:104D100040F004004FF0A0410860FFF773FF00F07F
:104D2000A1FA824600220521FDF744F98146494651
:104D3000102000F09FFA102000F072FA2648006B55
:104D400000E044E020F00100234908630846006BBE
:104D500040F00200086308468462006B40F00100E6
:104D60000863F0B267E74FF6FF710020091BA84106
:104D700001D200205FE74FF0A040006840F004003F
:104D80004FF0A0410860FFF73DFF00F06BFA82464C
:104D900000220521FDF70EF981464946112000F059
:104DA00069FA112000F03CFA0B48406C20F0010039
:104DB000094948640846406C40F0020048640846CF
:104DC000C463406C40F001004864F0B233E7002057
:104DD00031E70000080000200040024070B50446A2
:104DE0000D46164632462946204600F093F970BD1E
:104DF00010B500242348446904F0020000283FD085
:104E00002148007820B101281AD002282ED11EE0B6
:104E10001E48007A00B110BD01201C4981F83C00F9
:104E2000002008641A4800684068C1B21748426808
:104E30000A3081540A384068401C1449486015E023
:104E400000201449086000F0C5F900BFFEE71048D3
:104E500000684068C1B20D48406C00F140500170DC
:104E60000A48406C401C0949486400BF00BF04F078
:104E7000100028B108A000F0C3F9102001494861D2
:104E800000BFC8E700000140B0080020F002002089
:104E900038030020C00401505B434F4E535D636FE5
:104EA0006E666967207265675F697372204552524A
:104EB0004F52210D0A000000FF21026891617047E6
:104EC000FF2102685161704700B5034613B940F2F3
:104ED000012000BD1846FFF7EFFF1846FFF7F0FF6F
:104EE00000201968C8611968086218894104586966
:104EF00041EA0011186941EA8011988941EA0040AD
:104F0000998840EA8140196808621868006A40F090
:104F10000300196808625868012812D198690128AD
:104F200005D11868006A40F4002019680862186802
:104F3000006A998B4FF0F87202EA01510843196830
:104F400008621968186A486200201968C86200BFC0
:104F5000BFE700002DE9F04304460D461646DDF894
:104F60001C9000271E48006809FB00F81CB115B111
:104F7000002E00DD1BB940F20120BDE8F083204681
:104F8000FFF79AFF2046FFF79BFF24E0287821686F
:104F90004860002705E07F1C474502D940F2022007
:104FA000EBE72068406900F001000028F3D00027FB
:104FB00005E07F1C474502D940F20220DDE720686A
:104FC000406900F002000028F3D0206840681870A3
:104FD0005B1C6D1C761E002ED8DC0020CDE7000087
:104FE0001C0000202DE9F04104460E461546984667
:104FF00000232048006808FB00F714B10EB1002D13
:1050000003DC40F20120BDE8F0812046FFF754FFA9
:105010002046FFF755FF17E0012D02D1042021683B
:105020004861307821684860002305E05B1CBB4282
:1050300002D940F20220E6E72068406900F0010052
:105040000028F3D0761C6D1E002DE5DC002305E062
:105050005B1CBB4202D940F20220D4E720684069C1
:1050600000F004000028F3D00420216848610020EB
:10507000C9E700001C000020F0B50346002400250D
:105080000026002713B940F20120F0BD1846FFF7B3
:1050900013FF1846FFF714FF98690101586941EAA8
:1050A0008011986841EA8024186928B11869410282
:1050B000D86841EA0020044344F003040120196841
:1050C000C861186804621248006800015968B0FBA2
:1050D000F1F73D0907F00100C7F34201461805EB5F
:1050E000D60506F007060E2000EA46001968886219
:1050F0001868806A20F00100196888620DB1681E86
:1051000000E0284680B2196848620020BDE7000030
:105110000800002030B503460D46144613B10DB10A
:10512000002C02DC40F2012030BD1846FFF7C4FE1F
:105130001846FFF7C5FE0BE028781968486000BFE5
:105140001868406900F001000028F9D06D1C641E49
:10515000002CF1DC00BF1868406900F00400002852
:10516000F9D00420196848610020DDE70848006C88
:10517000084988420BD00648006C0749884203D191
:1051800004480349086402E0044801490864704780
:10519000000008401413EBEC3656C9A963659C9ACD
:1051A0000848006C0849884203D10848054908644A
:1051B00007E00448006C0649884202D100200149FA
:1051C00008647047000008401413EBEC3656C9A978
:1051D00063659C9A10B5FFF7E3FF0320034948601D
:1051E000002088600120486010BD00000040084099
:1051F0000870020A4A70020C8A70020ECA70704768
:105200000FB4054B10B503A9044A029800F06AF8E0
:1052100010BC5DF814FB0000F7620000A80000203D
:1052200000280DDB00BF00BF00F01F0201219140EC
:105230004209920002F1E022C2F8001100BF00BF53
:10524000704700280DDB00BF00BF00F01F020121E6
:1052500091404209920002F1E022C2F8001100BF21
:1052600000BF704702480068C0F30220704700008A
:105270000CED00E010B5002804DB4A07130E054AC8
:10528000135406E04A07140E034A00F00F031B1FD5
:10529000D45410BD00E400E018ED00E010B5002883
:1052A00004DB4A07130E054A135406E04A07140E9E
:1052B000034A00F00F031B1FD45410BD00E400E0AC
:1052C00018ED00E002E008C8121F08C1002AFAD158
:1052D00070477047002001E001C1121F002AFBD176
:1052E000704700002DE9FF4F8DB00F4605460026A0
:1052F00006E025280BD0DDE90F1290476D1C761CC7
:1053000028780028F5D111B03046BDE8F08F002490
:10531000A246A1460122E94900E0044315F8013FF5
:10532000203B02FA03F00842F7D128782A2810D04F
:105330006FF02F022878A0F13001092914D80AEB68
:105340008A0102EB410144F0020400EB010A6D1CEA
:10535000F0E701CF5FEA000A03D544F40054CAF134
:10536000000A44F002046D1C28782E2817D115F885
:10537000010F44F004042A280ED06FF02F02287881
:10538000A0F1300109290AD809EB890102EB41019A
:1053900000EB01096D1CF2E757F8049B6D1C28789F
:1053A0006C280FD006DC4C2817D068280DD06A284E
:1053B00014D104E0742810D07A280FD10DE044F401
:1053C00000140AE044F4801401E044F440146978C5
:1053D000814202D104F580146D1C6D1C28786E2862
:1053E0001ED00CDC632830D004DC00288BD0582879
:1053F00011D19FE0642867D069280CD164E073283C
:105400002DD004DC6F2872D0702804D194E0752868
:105410006ED078286DD0DDE90F129047761C4BE1F5
:10542000C4F30250022806D0032809D0042801CF73
:1054300009D0066040E101CFF117C0E900613BE10E
:1054400001CF068038E1067036E117F8040B8DF8BD
:10545000000000208DF80100EB46012003E057F822
:1054600004BB4FF0FF3061074FF0000102D40DE0A4
:1054700008F10101884649450FDA8045F8DB1BF841
:1054800008100029F4D108E008F1010188468142A2
:10549000FADB1BF808100029F6D1DDE90F23AAEB8F
:1054A00008008146214600F031F9304400EB08063F
:1054B00004E0DDE90F121BF8010B9047B8F1010879
:1054C000F7D221464846F2E00A21C4F302524FF0D7
:1054D000000B0891022A04D001CFC117032A09D07A
:1054E0000AE0FF1D27F00707F7E8020108E02CE0BB
:1054F0001EE01FE000B2C117042A01D140B2C1175B
:10550000021E71F1000206DA0023D0EB030063EB08
:1055100001012D2202E0220504D52B228DF8242042
:10552000012203E0E20701D02022F7E7904653E092
:105530000A210BE0102109E010214FF0000B44F08C
:1055400004044FF00809089103E008214FF0000B14
:105550000891C4F30252022A04D001CF0021032A89
:1055600006D006E0FF1D27F00707F7E8020103E079
:1055700080B2042A00D1C0B24FF0000822072BD518
:105580002A78702A07D0DDF820C08CF0100C5CEA75
:105590000B0C05D00EE040228DF82420012208E0FB
:1055A00050EA010306D030238DF824308DF82520F1
:1055B00002229046089B83F0080353EA0B030BD1A9
:1055C00050EA010201D1620706D530228DF824206D
:1055D0004FF00108A9F101092A78582A04D038A20D
:1055E0000B9208AA0A920BE03AA2F9E75B46089AE6
:1055F000FAF7F2FD0B9B9B5C0A9A521E0A921370FB
:1056000050EA0102F2D10A98ADEB000000F1200B44
:10561000600702D524F4803401E04FF00109D94538
:1056200002DDA9EB0B0000E0002000EB0B01414480
:105630000890AAEB010AE00306D4DDE90F23214616
:10564000504600F063F806444FF0000908E009A94D
:1056500011F80900DDE90F12904709F10109761CE4
:10566000C145F4DBE0030CD5DDE90F2321465046AC
:1056700000F04CF8064404E0DDE90F1230209047BA
:10568000761C0899481E08900029F5DC08E00A9865
:105690000A990078491C0A91DDE90F129047761C9F
:1056A000BBF10001ABF1010BF1DC21465046DDE915
:1056B0000F2300F019F806446D1C21E609280100AB
:1056C0003031323334353637383961626364656678
:1056D000000000003031323334353637383941423A
:1056E00043444546000000002DE9F04104460025F2
:1056F0001E461746880404D405E039462020B047EA
:105700006D1C641EF9D52846BDE8F0812DE9F041F5
:10571000044600251E469046C80301D5302700E008
:105720002027880404D505E041463846B0476D1C63
:10573000641EF9D52846BDE8F081000010B50020B0
:10574000FE4908604860FE4890F829000874FD484A
:10575000C08B0881FB48C08C4881FA48C08CC88146
:10576000F84890F82400C874012008750520487591
:10577000012088750520C875092008760D20487617
:10578000F04890F8230088760846C07C897E10FB9C
:1057900001F0EA49C87608200877032048770820F6
:1057A000C87788774874E74890F82200082802D123
:1057B0000120887402E00220E04988748020DF49DB
:1057C0000884DF4890F8280081F82200088CFBF755
:1057D00063FADA4981F82300D94890F8240081F867
:1057E0002400D748807E81F82500D54890F8300005
:1057F00081F82600D24890F8310081F8290007206E
:1058000081F827000A2081F82800088900EBD07170
:105810004910CA4A91811146088900F03DFDC749E7
:1058200081F82B000020C88508468089401E088624
:10583000488900F00FFDC14981F82D004C8904EB27
:10584000D471481000F006FDBC4981F8D200C88927
:1058500000EBD0714A10B949897E491EB74BDB89EC
:1058600001FB0321B54A51861146C88900EBD0716E
:105870004910491E91861146C989927E514388B2CA
:1058800000F00AFDAD4981F82C00AE48808EC88634
:10589000002048870846008C401E8887087F00F05B
:1058A0004DFDA649C8870020A1F840000846008C9D
:1058B000401EA1F842000220A1F844000846C08E14
:1058C00091F8221048439D4908879D4890F832007E
:1058D00081F87C0008460089897C48439749A1F8F3
:1058E0007E0008460089C97E48439449A1F880009B
:1058F0000989924AD27E01FB02F0C11700EB917137
:10590000C1F38F018D4AA2F882101046008911461A
:10591000C97E484340001146C1F884000846B0F8EB
:105920007E00C97E48431146C1F8880008460089B8
:10593000498948431146C97E48431146897C4843FA
:105940001146C1F88C0008468089C97E484311463B
:10595000A1F89000084680894FF6FF7101EA8000A7
:105960001146A1F8A400084680894FF6FF7101EAAC
:10597000C0001146A1F8A8000846B0F8A4004FF6F0
:10598000FF7101EA40001146A1F8A6000846B0F8F0
:10599000A400C97E48431146A1F89C000846B0F80F
:1059A0009C004FF6FF7101EA40001146A1F89E00ED
:1059B000888900EBD0714910A2F8B0101046808998
:1059C0004FF6FF7101EA40001146A1F8B200888944
:1059D00000EBD07149104FF6FF7202EA8101574A7D
:1059E000A2F89A10114689898900528901FB02F0B8
:1059F00000EBD0714910514AC2F8941011468989C0
:105A00008900528901FB02F0C11700EB9171C1F3CB
:105A10008F014A4AA2F898101046B0F89800114633
:105A2000C97E48431146C1F8A0000846B0F8A80056
:105A3000498948431146C1F8AC00084640894FF6F1
:105A4000FF7101EA80001146A1F8B400488900EB1B
:105A5000D0714910A2F8B61011464889C11700EB61
:105A600091718910A2F8B81011464889C11700EB4E
:105A7000D1614911A2F8BA101146C88900EBD07162
:105A80004910A2F8BC101046C07C80001146A1F855
:105A9000BE000846C07CC000A1F8C0000846407D9A
:105AA0008000A1F8C2000846807D8000A1F8C400F3
:105AB0000846C07D8000A1F8C6000846007E800030
:105AC000A1F8C8000846407E8000A1F8CA00084638
:105AD000407C8000A1F8CC000846C07E8000A1F880
